{
	"data": {
		"bytecode": {
			"linkReferences": {},
			"object": "60806040526003600c555f600d5f6101000a81548160ff0219169083151502179055505f600d60016101000a81548160ff021916908315150217905550348015610047575f5ffd5b50336040518060400160405280600981526020017f54696e61546f6b656e00000000000000000000000000000000000000000000008152506040518060400160405280600381526020017f544e410000000000000000000000000000000000000000000000000000000000815250815f90816100c3919061045d565b5080600190816100d3919061045d565b5050505f73ffffffffffffffffffffffffffffffffffffffff168173ffffffffffffffffffffffffffffffffffffffff1603610146575f6040517f1e4fbdf700000000000000000000000000000000000000000000000000000000815260040161013d919061056b565b60405180910390fd5b6101558161015b60201b60201c565b50610584565b5f600a60019054906101000a900473ffffffffffffffffffffffffffffffffffffffff16905081600a60016101000a81548173ffffffffffffffffffffffffffffffffffffffff021916908373ffffffffffffffffffffffffffffffffffffffff1602179055508173ffffffffffffffffffffffffffffffffffffffff168173ffffffffffffffffffffffffffffffffffffffff167f8be0079c531659141344cd1fd0a4f28419497f9722a3daafe3b4186f6b6457e060405160405180910390a35050565b5f81519050919050565b7f4e487b71000000000000000000000000000000000000000000000000000000005f52604160045260245ffd5b7f4e487b71000000000000000000000000000000000000000000000000000000005f52602260045260245ffd5b5f600282049050600182168061029b57607f821691505b6020821081036102ae576102ad610257565b5b50919050565b5f819050815f5260205f209050919050565b5f6020601f8301049050919050565b5f82821b905092915050565b5f600883026103107fffffffffffffffffffffffffffffffffffffffffffffffffffffffffffffffff826102d5565b61031a86836102d5565b95508019841693508086168417925050509392505050565b5f819050919050565b5f819050919050565b5f61035e61035961035484610332565b61033b565b610332565b9050919050565b5f819050919050565b61037783610344565b61038b61038382610365565b8484546102e1565b825550505050565b5f5f905090565b6103a2610393565b6103ad81848461036e565b505050565b5b818110156103d0576103c55f8261039a565b6001810190506103b3565b5050565b601f821115610415576103e6816102b4565b6103ef846102c6565b810160208510156103fe578190505b61041261040a856102c6565b8301826103b2565b50505b505050565b5f82821c905092915050565b5f6104355f198460080261041a565b1980831691505092915050565b5f61044d8383610426565b9150826002028217905092915050565b61046682610220565b67ffffffffffffffff81111561047f5761047e61022a565b5b6104898254610284565b6104948282856103d4565b5f60209050601f8311600181146104c5575f84156104b3578287015190505b6104bd8582610442565b865550610524565b601f1984166104d3866102b4565b5f5b828110156104fa578489015182556001820191506020850194506020810190506104d5565b868310156105175784890151610513601f891682610426565b8355505b6001600288020188555050505b505050505050565b5f73ffffffffffffffffffffffffffffffffffffffff82169050919050565b5f6105558261052c565b9050919050565b6105658161054b565b82525050565b5f60208201905061057e5f83018461055c565b92915050565b6131a2806105915f395ff3fe6080604052600436106101cc575f3560e01c80636447c35d116100f6578063a075fbde11610094578063c87b56dd11610063578063c87b56dd14610606578063e985e9c514610642578063f2fde38b1461067e578063f8d3bc92146106a6576101cc565b8063a075fbde14610550578063a22cb4651461058c578063b88d4fde146105b4578063bcc9ca5b146105dc576101cc565b80638456cb59116100d05780638456cb59146104be5780638da5cb5b146104d457806390ce7254146104fe57806395d89b4114610526576101cc565b80636447c35d1461044457806370a082311461046c578063715018a6146104a8576101cc565b806326092b831161016e5780634f6ccce71161013d5780634f6ccce71461037a57806351cff8d9146103b65780635c975abb146103de5780636352211e14610408576101cc565b806326092b83146102f65780632f745c59146103005780633f4ba83a1461033c57806342842e0e14610352576101cc565b8063095ea7b3116101aa578063095ea7b314610272578063102a6a731461029a57806318160ddd146102a457806323b872dd146102ce576101cc565b806301ffc9a7146101d057806306fdde031461020c578063081812fc14610236575b5f5ffd5b3480156101db575f5ffd5b506101f660048036038101906101f1919061265d565b6106d0565b60405161020391906126a2565b60405180910390f35b348015610217575f5ffd5b506102206106e1565b60405161022d919061272b565b60405180910390f35b348015610241575f5ffd5b5061025c6004803603810190610257919061277e565b610770565b60405161026991906127e8565b60405180910390f35b34801561027d575f5ffd5b506102986004803603810190610293919061282b565b61078b565b005b6102a26107a1565b005b3480156102af575f5ffd5b506102b86108cc565b6040516102c59190612878565b60405180910390f35b3480156102d9575f5ffd5b506102f460048036038101906102ef9190612891565b6108d8565b005b6102fe6109d7565b005b34801561030b575f5ffd5b506103266004803603810190610321919061282b565b610a78565b6040516103339190612878565b60405180910390f35b348015610347575f5ffd5b50610350610b1c565b005b34801561035d575f5ffd5b5061037860048036038101906103739190612891565b610b2e565b005b348015610385575f5ffd5b506103a0600480360381019061039b919061277e565b610b4d565b6040516103ad9190612878565b60405180910390f35b3480156103c1575f5ffd5b506103dc60048036038101906103d791906128e1565b610bbf565b005b3480156103e9575f5ffd5b506103f2610c13565b6040516103ff91906126a2565b60405180910390f35b348015610413575f5ffd5b5061042e6004803603810190610429919061277e565b610c28565b60405161043b91906127e8565b60405180910390f35b34801561044f575f5ffd5b5061046a6004803603810190610465919061296d565b610c39565b005b348015610477575f5ffd5b50610492600480360381019061048d91906128e1565b610cdf565b60405161049f9190612878565b60405180910390f35b3480156104b3575f5ffd5b506104bc610d95565b005b3480156104c9575f5ffd5b506104d2610da8565b005b3480156104df575f5ffd5b506104e8610dba565b6040516104f591906127e8565b60405180910390f35b348015610509575f5ffd5b50610524600480360381019061051f91906129e2565b610de3565b005b348015610531575f5ffd5b5061053a610e22565b604051610547919061272b565b60405180910390f35b34801561055b575f5ffd5b50610576600480360381019061057191906128e1565b610eb2565b60405161058391906126a2565b60405180910390f35b348015610597575f5ffd5b506105b260048036038101906105ad9190612a20565b610ecf565b005b3480156105bf575f5ffd5b506105da60048036038101906105d59190612b86565b610ee5565b005b3480156105e7575f5ffd5b506105f0610f0a565b6040516105fd91906126a2565b60405180910390f35b348015610611575f5ffd5b5061062c6004803603810190610627919061277e565b610f1c565b604051610639919061272b565b60405180910390f35b34801561064d575f5ffd5b5061066860048036038101906106639190612c06565b610f82565b60405161067591906126a2565b60405180910390f35b348015610689575f5ffd5b506106a4600480360381019061069f91906128e1565b611010565b005b3480156106b1575f5ffd5b506106ba611094565b6040516106c791906126a2565b60405180910390f35b5f6106da826110a7565b9050919050565b60605f80546106ef90612c71565b80601f016020809104026020016040519081016040528092919081815260200182805461071b90612c71565b80156107665780601f1061073d57610100808354040283529160200191610766565b820191905f5260205f20905b81548152906001019060200180831161074957829003601f168201915b5050505050905090565b5f61077a82611120565b50610784826111a6565b9050919050565b61079d82826107986111df565b6111e6565b5050565b600d60019054906101000a900460ff166107f0576040517f08c379a00000000000000000000000000000000000000000000000000000000081526004016107e790612d11565b60405180910390fd5b600e5f3373ffffffffffffffffffffffffffffffffffffffff1673ffffffffffffffffffffffffffffffffffffffff1681526020019081526020015f205f9054906101000a900460ff16610879576040517f08c379a000000000000000000000000000000000000000000000000000000000815260040161087090612d79565b60405180910390fd5b660aa87bee53800034146108c2576040517f08c379a00000000000000000000000000000000000000000000000000000000081526004016108b990612de1565b60405180910390fd5b6108ca6111f8565b565b5f600880549050905090565b5f73ffffffffffffffffffffffffffffffffffffffff168273ffffffffffffffffffffffffffffffffffffffff1603610948575f6040517f64a0ae9200000000000000000000000000000000000000000000000000000000815260040161093f91906127e8565b60405180910390fd5b5f61095b83836109566111df565b611269565b90508373ffffffffffffffffffffffffffffffffffffffff168173ffffffffffffffffffffffffffffffffffffffff16146109d1578382826040517f64283d7b0000000000000000000000000000000000000000000000000000000081526004016109c893929190612dff565b60405180910390fd5b50505050565b600d5f9054906101000a900460ff16610a25576040517f08c379a0000000000000000000000000000000000000000000000000000000008152600401610a1c90612d11565b60405180910390fd5b666a94d74f4300003414610a6e576040517f08c379a0000000000000000000000000000000000000000000000000000000008152600401610a6590612de1565b60405180910390fd5b610a766111f8565b565b5f610a8283610cdf565b8210610ac75782826040517fa57d13dc000000000000000000000000000000000000000000000000000000008152600401610abe929190612e34565b60405180910390fd5b60065f8473ffffffffffffffffffffffffffffffffffffffff1673ffffffffffffffffffffffffffffffffffffffff1681526020019081526020015f205f8381526020019081526020015f2054905092915050565b610b2461127e565b610b2c611305565b565b610b4883838360405180602001604052805f815250610ee5565b505050565b5f610b566108cc565b8210610b9b575f826040517fa57d13dc000000000000000000000000000000000000000000000000000000008152600401610b92929190612e34565b60405180910390fd5b60088281548110610baf57610bae612e5b565b5b905f5260205f2001549050919050565b610bc761127e565b5f4790508173ffffffffffffffffffffffffffffffffffffffff166108fc8290811502906040515f60405180830381858888f19350505050158015610c0e573d5f5f3e3d5ffd5b505050565b5f600a5f9054906101000a900460ff16905090565b5f610c3282611120565b9050919050565b610c4161127e565b5f5f90505b82829050811015610cda576001600e5f858585818110610c6957610c68612e5b565b5b9050602002016020810190610c7e91906128e1565b73ffffffffffffffffffffffffffffffffffffffff1673ffffffffffffffffffffffffffffffffffffffff1681526020019081526020015f205f6101000a81548160ff0219169083151502179055508080600101915050610c46565b505050565b5f5f73ffffffffffffffffffffffffffffffffffffffff168273ffffffffffffffffffffffffffffffffffffffff1603610d50575f6040517f89c62b64000000000000000000000000000000000000000000000000000000008152600401610d4791906127e8565b60405180910390fd5b60035f8373ffffffffffffffffffffffffffffffffffffffff1673ffffffffffffffffffffffffffffffffffffffff1681526020019081526020015f20549050919050565b610d9d61127e565b610da65f611366565b565b610db061127e565b610db861142b565b565b5f600a60019054906101000a900473ffffffffffffffffffffffffffffffffffffffff16905090565b610deb61127e565b81600d60016101000a81548160ff02191690831515021790555080600d5f6101000a81548160ff0219169083151502179055505050565b606060018054610e3190612c71565b80601f0160208091040260200160405190810160405280929190818152602001828054610e5d90612c71565b8015610ea85780601f10610e7f57610100808354040283529160200191610ea8565b820191905f5260205f20905b815481529060010190602001808311610e8b57829003601f168201915b5050505050905090565b600e602052805f5260405f205f915054906101000a900460ff1681565b610ee1610eda6111df565b838361148d565b5050565b610ef08484846108d8565b610f04610efb6111df565b858585856115f6565b50505050565b600d5f9054906101000a900460ff1681565b6060610f2782611120565b505f610f316117a2565b90505f815111610f4f5760405180602001604052805f815250610f7a565b80610f59846117c2565b604051602001610f6a929190612ec2565b6040516020818303038152906040525b915050919050565b5f60055f8473ffffffffffffffffffffffffffffffffffffffff1673ffffffffffffffffffffffffffffffffffffffff1681526020019081526020015f205f8373ffffffffffffffffffffffffffffffffffffffff1673ffffffffffffffffffffffffffffffffffffffff1681526020019081526020015f205f9054906101000a900460ff16905092915050565b61101861127e565b5f73ffffffffffffffffffffffffffffffffffffffff168173ffffffffffffffffffffffffffffffffffffffff1603611088575f6040517f1e4fbdf700000000000000000000000000000000000000000000000000000000815260040161107f91906127e8565b60405180910390fd5b61109181611366565b50565b600d60019054906101000a900460ff1681565b5f7f780e9d63000000000000000000000000000000000000000000000000000000007bffffffffffffffffffffffffffffffffffffffffffffffffffffffff1916827bffffffffffffffffffffffffffffffffffffffffffffffffffffffff1916148061111957506111188261188c565b5b9050919050565b5f5f61112b8361196d565b90505f73ffffffffffffffffffffffffffffffffffffffff168173ffffffffffffffffffffffffffffffffffffffff160361119d57826040517f7e2732890000000000000000000000000000000000000000000000000000000081526004016111949190612878565b60405180910390fd5b80915050919050565b5f60045f8381526020019081526020015f205f9054906101000a900473ffffffffffffffffffffffffffffffffffffffff169050919050565b5f33905090565b6111f383838360016119a6565b505050565b600c546112036108cc565b10611243576040517f08c379a000000000000000000000000000000000000000000000000000000000815260040161123a90612f2f565b60405180910390fd5b5f600b5f81548092919061125690612f7a565b9190505590506112663382611b65565b50565b5f611275848484611b82565b90509392505050565b6112866111df565b73ffffffffffffffffffffffffffffffffffffffff166112a4610dba565b73ffffffffffffffffffffffffffffffffffffffff1614611303576112c76111df565b6040517f118cdaa70000000000000000000000000000000000000000000000000000000081526004016112fa91906127e8565b60405180910390fd5b565b61130d611b9f565b5f600a5f6101000a81548160ff0219169083151502179055507f5db9ee0a495bf2e6ff9c91a7834c1ba4fdd244a5e8aa4e537bd38aeae4b073aa61134f6111df565b60405161135c91906127e8565b60405180910390a1565b5f600a60019054906101000a900473ffffffffffffffffffffffffffffffffffffffff16905081600a60016101000a81548173ffffffffffffffffffffffffffffffffffffffff021916908373ffffffffffffffffffffffffffffffffffffffff1602179055508173ffffffffffffffffffffffffffffffffffffffff168173ffffffffffffffffffffffffffffffffffffffff167f8be0079c531659141344cd1fd0a4f28419497f9722a3daafe3b4186f6b6457e060405160405180910390a35050565b611433611bdf565b6001600a5f6101000a81548160ff0219169083151502179055507f62e78cea01bee320cd4e420270b5ea74000d11b0c9f74754ebdbfc544b05a2586114766111df565b60405161148391906127e8565b60405180910390a1565b5f73ffffffffffffffffffffffffffffffffffffffff168273ffffffffffffffffffffffffffffffffffffffff16036114fd57816040517f5b08ba180000000000000000000000000000000000000000000000000000000081526004016114f491906127e8565b60405180910390fd5b8060055f8573ffffffffffffffffffffffffffffffffffffffff1673ffffffffffffffffffffffffffffffffffffffff1681526020019081526020015f205f8473ffffffffffffffffffffffffffffffffffffffff1673ffffffffffffffffffffffffffffffffffffffff1681526020019081526020015f205f6101000a81548160ff0219169083151502179055508173ffffffffffffffffffffffffffffffffffffffff168373ffffffffffffffffffffffffffffffffffffffff167f17307eab39ab6107e8899845ad3d59bd9653f200f220920489ca2b5937696c31836040516115e991906126a2565b60405180910390a3505050565b5f8373ffffffffffffffffffffffffffffffffffffffff163b111561179b578273ffffffffffffffffffffffffffffffffffffffff1663150b7a02868685856040518563ffffffff1660e01b81526004016116549493929190613013565b6020604051808303815f875af192505050801561168f57506040513d601f19601f8201168201806040525081019061168c9190613071565b60015b611710573d805f81146116bd576040519150601f19603f3d011682016040523d82523d5f602084013e6116c2565b606091505b505f81510361170857836040517f64a0ae920000000000000000000000000000000000000000000000000000000081526004016116ff91906127e8565b60405180910390fd5b805160208201fd5b63150b7a0260e01b7bffffffffffffffffffffffffffffffffffffffffffffffffffffffff1916817bffffffffffffffffffffffffffffffffffffffffffffffffffffffff19161461179957836040517f64a0ae9200000000000000000000000000000000000000000000000000000000815260040161179091906127e8565b60405180910390fd5b505b5050505050565b606060405180608001604052806043815260200161312a60439139905090565b60605f60016117d084611c20565b0190505f8167ffffffffffffffff8111156117ee576117ed612a62565b5b6040519080825280601f01601f1916602001820160405280156118205781602001600182028036833780820191505090505b5090505f82602083010190505b600115611881578080600190039150507f3031323334353637383961626364656600000000000000000000000000000000600a86061a8153600a85816118765761187561309c565b5b0494505f850361182d575b819350505050919050565b5f7f80ac58cd000000000000000000000000000000000000000000000000000000007bffffffffffffffffffffffffffffffffffffffffffffffffffffffff1916827bffffffffffffffffffffffffffffffffffffffffffffffffffffffff1916148061195657507f5b5e139f000000000000000000000000000000000000000000000000000000007bffffffffffffffffffffffffffffffffffffffffffffffffffffffff1916827bffffffffffffffffffffffffffffffffffffffffffffffffffffffff1916145b80611966575061196582611d71565b5b9050919050565b5f60025f8381526020019081526020015f205f9054906101000a900473ffffffffffffffffffffffffffffffffffffffff169050919050565b80806119de57505f73ffffffffffffffffffffffffffffffffffffffff168273ffffffffffffffffffffffffffffffffffffffff1614155b15611b10575f6119ed84611120565b90505f73ffffffffffffffffffffffffffffffffffffffff168373ffffffffffffffffffffffffffffffffffffffff1614158015611a5757508273ffffffffffffffffffffffffffffffffffffffff168173ffffffffffffffffffffffffffffffffffffffff1614155b8015611a6a5750611a688184610f82565b155b15611aac57826040517fa9fbf51f000000000000000000000000000000000000000000000000000000008152600401611aa391906127e8565b60405180910390fd5b8115611b0e57838573ffffffffffffffffffffffffffffffffffffffff168273ffffffffffffffffffffffffffffffffffffffff167f8c5be1e5ebec7d5bd14f71427d1e84f3dd0314c0f7b2291e5b200ac8c7c3b92560405160405180910390a45b505b8360045f8581526020019081526020015f205f6101000a81548173ffffffffffffffffffffffffffffffffffffffff021916908373ffffffffffffffffffffffffffffffffffffffff16021790555050505050565b611b7e828260405180602001604052805f815250611dda565b5050565b5f611b8b611bdf565b611b96848484611dfd565b90509392505050565b611ba7610c13565b611bdd576040517f8dfc202b00000000000000000000000000000000000000000000000000000000815260040160405180910390fd5b565b611be7610c13565b15611c1e576040517fd93c066500000000000000000000000000000000000000000000000000000000815260040160405180910390fd5b565b5f5f5f90507a184f03e93ff9f4daa797ed6e38ed64bf6a1f0100000000000000008310611c7c577a184f03e93ff9f4daa797ed6e38ed64bf6a1f0100000000000000008381611c7257611c7161309c565b5b0492506040810190505b6d04ee2d6d415b85acef81000000008310611cb9576d04ee2d6d415b85acef81000000008381611caf57611cae61309c565b5b0492506020810190505b662386f26fc100008310611ce857662386f26fc100008381611cde57611cdd61309c565b5b0492506010810190505b6305f5e1008310611d11576305f5e1008381611d0757611d0661309c565b5b0492506008810190505b6127108310611d36576127108381611d2c57611d2b61309c565b5b0492506004810190505b60648310611d595760648381611d4f57611d4e61309c565b5b0492506002810190505b600a8310611d68576001810190505b80915050919050565b5f7f01ffc9a7000000000000000000000000000000000000000000000000000000007bffffffffffffffffffffffffffffffffffffffffffffffffffffffff1916827bffffffffffffffffffffffffffffffffffffffffffffffffffffffff1916149050919050565b611de48383611f17565b611df8611def6111df565b5f8585856115f6565b505050565b5f5f611e0a85858561200a565b90505f73ffffffffffffffffffffffffffffffffffffffff168173ffffffffffffffffffffffffffffffffffffffff1603611e4d57611e4884612215565b611e8c565b8473ffffffffffffffffffffffffffffffffffffffff168173ffffffffffffffffffffffffffffffffffffffff1614611e8b57611e8a8185612259565b5b5b5f73ffffffffffffffffffffffffffffffffffffffff168573ffffffffffffffffffffffffffffffffffffffff1603611ecd57611ec884612330565b611f0c565b8473ffffffffffffffffffffffffffffffffffffffff168173ffffffffffffffffffffffffffffffffffffffff1614611f0b57611f0a85856123f0565b5b5b809150509392505050565b5f73ffffffffffffffffffffffffffffffffffffffff168273ffffffffffffffffffffffffffffffffffffffff1603611f87575f6040517f64a0ae92000000000000000000000000000000000000000000000000000000008152600401611f7e91906127e8565b60405180910390fd5b5f611f9383835f611269565b90505f73ffffffffffffffffffffffffffffffffffffffff168173ffffffffffffffffffffffffffffffffffffffff1614612005575f6040517f73c6ac6e000000000000000000000000000000000000000000000000000000008152600401611ffc91906127e8565b60405180910390fd5b505050565b5f5f6120158461196d565b90505f73ffffffffffffffffffffffffffffffffffffffff168373ffffffffffffffffffffffffffffffffffffffff161461205657612055818486612474565b5b5f73ffffffffffffffffffffffffffffffffffffffff168173ffffffffffffffffffffffffffffffffffffffff16146120e1576120955f855f5f6119a6565b600160035f8373ffffffffffffffffffffffffffffffffffffffff1673ffffffffffffffffffffffffffffffffffffffff1681526020019081526020015f205f82825403925050819055505b5f73ffffffffffffffffffffffffffffffffffffffff168573ffffffffffffffffffffffffffffffffffffffff161461216057600160035f8773ffffffffffffffffffffffffffffffffffffffff1673ffffffffffffffffffffffffffffffffffffffff1681526020019081526020015f205f82825401925050819055505b8460025f8681526020019081526020015f205f6101000a81548173ffffffffffffffffffffffffffffffffffffffff021916908373ffffffffffffffffffffffffffffffffffffffff160217905550838573ffffffffffffffffffffffffffffffffffffffff168273ffffffffffffffffffffffffffffffffffffffff167fddf252ad1be2c89b69c2b068fc378daa952ba7f163c4a11628f55a4df523b3ef60405160405180910390a4809150509392505050565b60088054905060095f8381526020019081526020015f2081905550600881908060018154018082558091505060019003905f5260205f20015f909190919091505550565b5f61226383610cdf565b90505f60075f8481526020019081526020015f205490505f60065f8673ffffffffffffffffffffffffffffffffffffffff1673ffffffffffffffffffffffffffffffffffffffff1681526020019081526020015f209050828214612302575f815f8581526020019081526020015f2054905080825f8581526020019081526020015f20819055508260075f8381526020019081526020015f2081905550505b60075f8581526020019081526020015f205f9055805f8481526020019081526020015f205f90555050505050565b5f600160088054905061234391906130c9565b90505f60095f8481526020019081526020015f205490505f6008838154811061236f5761236e612e5b565b5b905f5260205f2001549050806008838154811061238f5761238e612e5b565b5b905f5260205f2001819055508160095f8381526020019081526020015f208190555060095f8581526020019081526020015f205f905560088054806123d7576123d66130fc565b5b600190038181905f5260205f20015f9055905550505050565b5f60016123fc84610cdf565b61240691906130c9565b90508160065f8573ffffffffffffffffffffffffffffffffffffffff1673ffffffffffffffffffffffffffffffffffffffff1681526020019081526020015f205f8381526020019081526020015f20819055508060075f8481526020019081526020015f2081905550505050565b61247f838383612537565b612532575f73ffffffffffffffffffffffffffffffffffffffff168373ffffffffffffffffffffffffffffffffffffffff16036124f357806040517f7e2732890000000000000000000000000000000000000000000000000000000081526004016124ea9190612878565b60405180910390fd5b81816040517f177e802f000000000000000000000000000000000000000000000000000000008152600401612529929190612e34565b60405180910390fd5b505050565b5f5f73ffffffffffffffffffffffffffffffffffffffff168373ffffffffffffffffffffffffffffffffffffffff16141580156125ee57508273ffffffffffffffffffffffffffffffffffffffff168473ffffffffffffffffffffffffffffffffffffffff1614806125af57506125ae8484610f82565b5b806125ed57508273ffffffffffffffffffffffffffffffffffffffff166125d5836111a6565b73ffffffffffffffffffffffffffffffffffffffff16145b5b90509392505050565b5f604051905090565b5f5ffd5b5f5ffd5b5f7fffffffff0000000000000000000000000000000000000000000000000000000082169050919050565b61263c81612608565b8114612646575f5ffd5b50565b5f8135905061265781612633565b92915050565b5f6020828403121561267257612671612600565b5b5f61267f84828501612649565b91505092915050565b5f8115159050919050565b61269c81612688565b82525050565b5f6020820190506126b55f830184612693565b92915050565b5f81519050919050565b5f82825260208201905092915050565b8281835e5f83830152505050565b5f601f19601f8301169050919050565b5f6126fd826126bb565b61270781856126c5565b93506127178185602086016126d5565b612720816126e3565b840191505092915050565b5f6020820190508181035f83015261274381846126f3565b905092915050565b5f819050919050565b61275d8161274b565b8114612767575f5ffd5b50565b5f8135905061277881612754565b92915050565b5f6020828403121561279357612792612600565b5b5f6127a08482850161276a565b91505092915050565b5f73ffffffffffffffffffffffffffffffffffffffff82169050919050565b5f6127d2826127a9565b9050919050565b6127e2816127c8565b82525050565b5f6020820190506127fb5f8301846127d9565b92915050565b61280a816127c8565b8114612814575f5ffd5b50565b5f8135905061282581612801565b92915050565b5f5f6040838503121561284157612840612600565b5b5f61284e85828601612817565b925050602061285f8582860161276a565b9150509250929050565b6128728161274b565b82525050565b5f60208201905061288b5f830184612869565b92915050565b5f5f5f606084860312156128a8576128a7612600565b5b5f6128b586828701612817565b93505060206128c686828701612817565b92505060406128d78682870161276a565b9150509250925092565b5f602082840312156128f6576128f5612600565b5b5f61290384828501612817565b91505092915050565b5f5ffd5b5f5ffd5b5f5ffd5b5f5f83601f84011261292d5761292c61290c565b5b8235905067ffffffffffffffff81111561294a57612949612910565b5b60208301915083602082028301111561296657612965612914565b5b9250929050565b5f5f6020838503121561298357612982612600565b5b5f83013567ffffffffffffffff8111156129a05761299f612604565b5b6129ac85828601612918565b92509250509250929050565b6129c181612688565b81146129cb575f5ffd5b50565b5f813590506129dc816129b8565b92915050565b5f5f604083850312156129f8576129f7612600565b5b5f612a05858286016129ce565b9250506020612a16858286016129ce565b9150509250929050565b5f5f60408385031215612a3657612a35612600565b5b5f612a4385828601612817565b9250506020612a54858286016129ce565b9150509250929050565b5f5ffd5b7f4e487b71000000000000000000000000000000000000000000000000000000005f52604160045260245ffd5b612a98826126e3565b810181811067ffffffffffffffff82111715612ab757612ab6612a62565b5b80604052505050565b5f612ac96125f7565b9050612ad58282612a8f565b919050565b5f67ffffffffffffffff821115612af457612af3612a62565b5b612afd826126e3565b9050602081019050919050565b828183375f83830152505050565b5f612b2a612b2584612ada565b612ac0565b905082815260208101848484011115612b4657612b45612a5e565b5b612b51848285612b0a565b509392505050565b5f82601f830112612b6d57612b6c61290c565b5b8135612b7d848260208601612b18565b91505092915050565b5f5f5f5f60808587031215612b9e57612b9d612600565b5b5f612bab87828801612817565b9450506020612bbc87828801612817565b9350506040612bcd8782880161276a565b925050606085013567ffffffffffffffff811115612bee57612bed612604565b5b612bfa87828801612b59565b91505092959194509250565b5f5f60408385031215612c1c57612c1b612600565b5b5f612c2985828601612817565b9250506020612c3a85828601612817565b9150509250929050565b7f4e487b71000000000000000000000000000000000000000000000000000000005f52602260045260245ffd5b5f6002820490506001821680612c8857607f821691505b602082108103612c9b57612c9a612c44565b5b50919050565b7f536f7272792074686973206d696e74206973206e6f74206176696c61626520665f8201527f6f72206e6f770000000000000000000000000000000000000000000000000000602082015250565b5f612cfb6026836126c5565b9150612d0682612ca1565b604082019050919050565b5f6020820190508181035f830152612d2881612cef565b9050919050565b7f596f757220617265206e6f7420616c6c6f7765642075736572000000000000005f82015250565b5f612d636019836126c5565b9150612d6e82612d2f565b602082019050919050565b5f6020820190508181035f830152612d9081612d57565b9050919050565b7f496e737566666369656e742062616c616e6365000000000000000000000000005f82015250565b5f612dcb6013836126c5565b9150612dd682612d97565b602082019050919050565b5f6020820190508181035f830152612df881612dbf565b9050919050565b5f606082019050612e125f8301866127d9565b612e1f6020830185612869565b612e2c60408301846127d9565b949350505050565b5f604082019050612e475f8301856127d9565b612e546020830184612869565b9392505050565b7f4e487b71000000000000000000000000000000000000000000000000000000005f52603260045260245ffd5b5f81905092915050565b5f612e9c826126bb565b612ea68185612e88565b9350612eb68185602086016126d5565b80840191505092915050565b5f612ecd8285612e92565b9150612ed98284612e92565b91508190509392505050565b7f546865204e4654206973206d696e74656420616c6c00000000000000000000005f82015250565b5f612f196015836126c5565b9150612f2482612ee5565b602082019050919050565b5f6020820190508181035f830152612f4681612f0d565b9050919050565b7f4e487b71000000000000000000000000000000000000000000000000000000005f52601160045260245ffd5b5f612f848261274b565b91507fffffffffffffffffffffffffffffffffffffffffffffffffffffffffffffffff8203612fb657612fb5612f4d565b5b600182019050919050565b5f81519050919050565b5f82825260208201905092915050565b5f612fe582612fc1565b612fef8185612fcb565b9350612fff8185602086016126d5565b613008816126e3565b840191505092915050565b5f6080820190506130265f8301876127d9565b61303360208301866127d9565b6130406040830185612869565b81810360608301526130528184612fdb565b905095945050505050565b5f8151905061306b81612633565b92915050565b5f6020828403121561308657613085612600565b5b5f6130938482850161305d565b91505092915050565b7f4e487b71000000000000000000000000000000000000000000000000000000005f52601260045260245ffd5b5f6130d38261274b565b91506130de8361274b565b92508282039050818111156130f6576130f5612f4d565b5b92915050565b7f4e487b71000000000000000000000000000000000000000000000000000000005f52603160045260245ffdfe68747470733a2f2f697066732e696f2f697066732f516d524b786f31413635413156346a546b375066324d7a377948534438764e666173647a4a674a6e534e73354241a264697066735822122012079ea726a36fde619540fc5f76cf8c36c8ef838e72a608da8996d3edbfeda864736f6c634300081e0033",
			"opcodes": "PUSH1 0x80 PUSH1 0x40 MSTORE PUSH1 0x3 PUSH1 0xC SSTORE PUSH0 PUSH1 0xD PUSH0 PUSH2 0x100 EXP DUP2 SLOAD DUP2 PUSH1 0xFF MUL NOT AND SWAP1 DUP4 ISZERO ISZERO MUL OR SWAP1 SSTORE POP PUSH0 PUSH1 0xD PUSH1 0x1 PUSH2 0x100 EXP DUP2 SLOAD DUP2 PUSH1 0xFF MUL NOT AND SWAP1 DUP4 ISZERO ISZERO MUL OR SWAP1 SSTORE POP CALLVALUE DUP1 ISZERO PUSH2 0x47 JUMPI PUSH0 PUSH0 REVERT JUMPDEST POP CALLER PUSH1 0x40 MLOAD DUP1 PUSH1 0x40 ADD PUSH1 0x40 MSTORE DUP1 PUSH1 0x9 DUP2 MSTORE PUSH1 0x20 ADD PUSH32 0x54696E61546F6B656E0000000000000000000000000000000000000000000000 DUP2 MSTORE POP PUSH1 0x40 MLOAD DUP1 PUSH1 0x40 ADD PUSH1 0x40 MSTORE DUP1 PUSH1 0x3 DUP2 MSTORE PUSH1 0x20 ADD PUSH32 0x544E410000000000000000000000000000000000000000000000000000000000 DUP2 MSTORE POP DUP2 PUSH0 SWAP1 DUP2 PUSH2 0xC3 SWAP2 SWAP1 PUSH2 0x45D JUMP JUMPDEST POP DUP1 PUSH1 0x1 SWAP1 DUP2 PUSH2 0xD3 SWAP2 SWAP1 PUSH2 0x45D JUMP JUMPDEST POP POP POP PUSH0 PUSH20 0xFFFFFFFFFFFFFFFFFFFFFFFFFFFFFFFFFFFFFFFF AND DUP2 PUSH20 0xFFFFFFFFFFFFFFFFFFFFFFFFFFFFFFFFFFFFFFFF AND SUB PUSH2 0x146 JUMPI PUSH0 PUSH1 0x40 MLOAD PUSH32 0x1E4FBDF700000000000000000000000000000000000000000000000000000000 DUP2 MSTORE PUSH1 0x4 ADD PUSH2 0x13D SWAP2 SWAP1 PUSH2 0x56B JUMP JUMPDEST PUSH1 0x40 MLOAD DUP1 SWAP2 SUB SWAP1 REVERT JUMPDEST PUSH2 0x155 DUP2 PUSH2 0x15B PUSH1 0x20 SHL PUSH1 0x20 SHR JUMP JUMPDEST POP PUSH2 0x584 JUMP JUMPDEST PUSH0 PUSH1 0xA PUSH1 0x1 SWAP1 SLOAD SWAP1 PUSH2 0x100 EXP SWAP1 DIV PUSH20 0xFFFFFFFFFFFFFFFFFFFFFFFFFFFFFFFFFFFFFFFF AND SWAP1 POP DUP2 PUSH1 0xA PUSH1 0x1 PUSH2 0x100 EXP DUP2 SLOAD DUP2 PUSH20 0xFFFFFFFFFFFFFFFFFFFFFFFFFFFFFFFFFFFFFFFF MUL NOT AND SWAP1 DUP4 PUSH20 0xFFFFFFFFFFFFFFFFFFFFFFFFFFFFFFFFFFFFFFFF AND MUL OR SWAP1 SSTORE POP DUP2 PUSH20 0xFFFFFFFFFFFFFFFFFFFFFFFFFFFFFFFFFFFFFFFF AND DUP2 PUSH20 0xFFFFFFFFFFFFFFFFFFFFFFFFFFFFFFFFFFFFFFFF AND PUSH32 0x8BE0079C531659141344CD1FD0A4F28419497F9722A3DAAFE3B4186F6B6457E0 PUSH1 0x40 MLOAD PUSH1 0x40 MLOAD DUP1 SWAP2 SUB SWAP1 LOG3 POP POP JUMP JUMPDEST PUSH0 DUP2 MLOAD SWAP1 POP SWAP2 SWAP1 POP JUMP JUMPDEST PUSH32 0x4E487B7100000000000000000000000000000000000000000000000000000000 PUSH0 MSTORE PUSH1 0x41 PUSH1 0x4 MSTORE PUSH1 0x24 PUSH0 REVERT JUMPDEST PUSH32 0x4E487B7100000000000000000000000000000000000000000000000000000000 PUSH0 MSTORE PUSH1 0x22 PUSH1 0x4 MSTORE PUSH1 0x24 PUSH0 REVERT JUMPDEST PUSH0 PUSH1 0x2 DUP3 DIV SWAP1 POP PUSH1 0x1 DUP3 AND DUP1 PUSH2 0x29B JUMPI PUSH1 0x7F DUP3 AND SWAP2 POP JUMPDEST PUSH1 0x20 DUP3 LT DUP2 SUB PUSH2 0x2AE JUMPI PUSH2 0x2AD PUSH2 0x257 JUMP JUMPDEST JUMPDEST POP SWAP2 SWAP1 POP JUMP JUMPDEST PUSH0 DUP2 SWAP1 POP DUP2 PUSH0 MSTORE PUSH1 0x20 PUSH0 KECCAK256 SWAP1 POP SWAP2 SWAP1 POP JUMP JUMPDEST PUSH0 PUSH1 0x20 PUSH1 0x1F DUP4 ADD DIV SWAP1 POP SWAP2 SWAP1 POP JUMP JUMPDEST PUSH0 DUP3 DUP3 SHL SWAP1 POP SWAP3 SWAP2 POP POP JUMP JUMPDEST PUSH0 PUSH1 0x8 DUP4 MUL PUSH2 0x310 PUSH32 0xFFFFFFFFFFFFFFFFFFFFFFFFFFFFFFFFFFFFFFFFFFFFFFFFFFFFFFFFFFFFFFFF DUP3 PUSH2 0x2D5 JUMP JUMPDEST PUSH2 0x31A DUP7 DUP4 PUSH2 0x2D5 JUMP JUMPDEST SWAP6 POP DUP1 NOT DUP5 AND SWAP4 POP DUP1 DUP7 AND DUP5 OR SWAP3 POP POP POP SWAP4 SWAP3 POP POP POP JUMP JUMPDEST PUSH0 DUP2 SWAP1 POP SWAP2 SWAP1 POP JUMP JUMPDEST PUSH0 DUP2 SWAP1 POP SWAP2 SWAP1 POP JUMP JUMPDEST PUSH0 PUSH2 0x35E PUSH2 0x359 PUSH2 0x354 DUP5 PUSH2 0x332 JUMP JUMPDEST PUSH2 0x33B JUMP JUMPDEST PUSH2 0x332 JUMP JUMPDEST SWAP1 POP SWAP2 SWAP1 POP JUMP JUMPDEST PUSH0 DUP2 SWAP1 POP SWAP2 SWAP1 POP JUMP JUMPDEST PUSH2 0x377 DUP4 PUSH2 0x344 JUMP JUMPDEST PUSH2 0x38B PUSH2 0x383 DUP3 PUSH2 0x365 JUMP JUMPDEST DUP5 DUP5 SLOAD PUSH2 0x2E1 JUMP JUMPDEST DUP3 SSTORE POP POP POP POP JUMP JUMPDEST PUSH0 PUSH0 SWAP1 POP SWAP1 JUMP JUMPDEST PUSH2 0x3A2 PUSH2 0x393 JUMP JUMPDEST PUSH2 0x3AD DUP2 DUP5 DUP5 PUSH2 0x36E JUMP JUMPDEST POP POP POP JUMP JUMPDEST JUMPDEST DUP2 DUP2 LT ISZERO PUSH2 0x3D0 JUMPI PUSH2 0x3C5 PUSH0 DUP3 PUSH2 0x39A JUMP JUMPDEST PUSH1 0x1 DUP2 ADD SWAP1 POP PUSH2 0x3B3 JUMP JUMPDEST POP POP JUMP JUMPDEST PUSH1 0x1F DUP3 GT ISZERO PUSH2 0x415 JUMPI PUSH2 0x3E6 DUP2 PUSH2 0x2B4 JUMP JUMPDEST PUSH2 0x3EF DUP5 PUSH2 0x2C6 JUMP JUMPDEST DUP2 ADD PUSH1 0x20 DUP6 LT ISZERO PUSH2 0x3FE JUMPI DUP2 SWAP1 POP JUMPDEST PUSH2 0x412 PUSH2 0x40A DUP6 PUSH2 0x2C6 JUMP JUMPDEST DUP4 ADD DUP3 PUSH2 0x3B2 JUMP JUMPDEST POP POP JUMPDEST POP POP POP JUMP JUMPDEST PUSH0 DUP3 DUP3 SHR SWAP1 POP SWAP3 SWAP2 POP POP JUMP JUMPDEST PUSH0 PUSH2 0x435 PUSH0 NOT DUP5 PUSH1 0x8 MUL PUSH2 0x41A JUMP JUMPDEST NOT DUP1 DUP4 AND SWAP2 POP POP SWAP3 SWAP2 POP POP JUMP JUMPDEST PUSH0 PUSH2 0x44D DUP4 DUP4 PUSH2 0x426 JUMP JUMPDEST SWAP2 POP DUP3 PUSH1 0x2 MUL DUP3 OR SWAP1 POP SWAP3 SWAP2 POP POP JUMP JUMPDEST PUSH2 0x466 DUP3 PUSH2 0x220 JUMP JUMPDEST PUSH8 0xFFFFFFFFFFFFFFFF DUP2 GT ISZERO PUSH2 0x47F JUMPI PUSH2 0x47E PUSH2 0x22A JUMP JUMPDEST JUMPDEST PUSH2 0x489 DUP3 SLOAD PUSH2 0x284 JUMP JUMPDEST PUSH2 0x494 DUP3 DUP3 DUP6 PUSH2 0x3D4 JUMP JUMPDEST PUSH0 PUSH1 0x20 SWAP1 POP PUSH1 0x1F DUP4 GT PUSH1 0x1 DUP2 EQ PUSH2 0x4C5 JUMPI PUSH0 DUP5 ISZERO PUSH2 0x4B3 JUMPI DUP3 DUP8 ADD MLOAD SWAP1 POP JUMPDEST PUSH2 0x4BD DUP6 DUP3 PUSH2 0x442 JUMP JUMPDEST DUP7 SSTORE POP PUSH2 0x524 JUMP JUMPDEST PUSH1 0x1F NOT DUP5 AND PUSH2 0x4D3 DUP7 PUSH2 0x2B4 JUMP JUMPDEST PUSH0 JUMPDEST DUP3 DUP2 LT ISZERO PUSH2 0x4FA JUMPI DUP5 DUP10 ADD MLOAD DUP3 SSTORE PUSH1 0x1 DUP3 ADD SWAP2 POP PUSH1 0x20 DUP6 ADD SWAP5 POP PUSH1 0x20 DUP2 ADD SWAP1 POP PUSH2 0x4D5 JUMP JUMPDEST DUP7 DUP4 LT ISZERO PUSH2 0x517 JUMPI DUP5 DUP10 ADD MLOAD PUSH2 0x513 PUSH1 0x1F DUP10 AND DUP3 PUSH2 0x426 JUMP JUMPDEST DUP4 SSTORE POP JUMPDEST PUSH1 0x1 PUSH1 0x2 DUP9 MUL ADD DUP9 SSTORE POP POP POP JUMPDEST POP POP POP POP POP POP JUMP JUMPDEST PUSH0 PUSH20 0xFFFFFFFFFFFFFFFFFFFFFFFFFFFFFFFFFFFFFFFF DUP3 AND SWAP1 POP SWAP2 SWAP1 POP JUMP JUMPDEST PUSH0 PUSH2 0x555 DUP3 PUSH2 0x52C JUMP JUMPDEST SWAP1 POP SWAP2 SWAP1 POP JUMP JUMPDEST PUSH2 0x565 DUP2 PUSH2 0x54B JUMP JUMPDEST DUP3 MSTORE POP POP JUMP JUMPDEST PUSH0 PUSH1 0x20 DUP3 ADD SWAP1 POP PUSH2 0x57E PUSH0 DUP4 ADD DUP5 PUSH2 0x55C JUMP JUMPDEST SWAP3 SWAP2 POP POP JUMP JUMPDEST PUSH2 0x31A2 DUP1 PUSH2 0x591 PUSH0 CODECOPY PUSH0 RETURN INVALID PUSH1 0x80 PUSH1 0x40 MSTORE PUSH1 0x4 CALLDATASIZE LT PUSH2 0x1CC JUMPI PUSH0 CALLDATALOAD PUSH1 0xE0 SHR DUP1 PUSH4 0x6447C35D GT PUSH2 0xF6 JUMPI DUP1 PUSH4 0xA075FBDE GT PUSH2 0x94 JUMPI DUP1 PUSH4 0xC87B56DD GT PUSH2 0x63 JUMPI DUP1 PUSH4 0xC87B56DD EQ PUSH2 0x606 JUMPI DUP1 PUSH4 0xE985E9C5 EQ PUSH2 0x642 JUMPI DUP1 PUSH4 0xF2FDE38B EQ PUSH2 0x67E JUMPI DUP1 PUSH4 0xF8D3BC92 EQ PUSH2 0x6A6 JUMPI PUSH2 0x1CC JUMP JUMPDEST DUP1 PUSH4 0xA075FBDE EQ PUSH2 0x550 JUMPI DUP1 PUSH4 0xA22CB465 EQ PUSH2 0x58C JUMPI DUP1 PUSH4 0xB88D4FDE EQ PUSH2 0x5B4 JUMPI DUP1 PUSH4 0xBCC9CA5B EQ PUSH2 0x5DC JUMPI PUSH2 0x1CC JUMP JUMPDEST DUP1 PUSH4 0x8456CB59 GT PUSH2 0xD0 JUMPI DUP1 PUSH4 0x8456CB59 EQ PUSH2 0x4BE JUMPI DUP1 PUSH4 0x8DA5CB5B EQ PUSH2 0x4D4 JUMPI DUP1 PUSH4 0x90CE7254 EQ PUSH2 0x4FE JUMPI DUP1 PUSH4 0x95D89B41 EQ PUSH2 0x526 JUMPI PUSH2 0x1CC JUMP JUMPDEST DUP1 PUSH4 0x6447C35D EQ PUSH2 0x444 JUMPI DUP1 PUSH4 0x70A08231 EQ PUSH2 0x46C JUMPI DUP1 PUSH4 0x715018A6 EQ PUSH2 0x4A8 JUMPI PUSH2 0x1CC JUMP JUMPDEST DUP1 PUSH4 0x26092B83 GT PUSH2 0x16E JUMPI DUP1 PUSH4 0x4F6CCCE7 GT PUSH2 0x13D JUMPI DUP1 PUSH4 0x4F6CCCE7 EQ PUSH2 0x37A JUMPI DUP1 PUSH4 0x51CFF8D9 EQ PUSH2 0x3B6 JUMPI DUP1 PUSH4 0x5C975ABB EQ PUSH2 0x3DE JUMPI DUP1 PUSH4 0x6352211E EQ PUSH2 0x408 JUMPI PUSH2 0x1CC JUMP JUMPDEST DUP1 PUSH4 0x26092B83 EQ PUSH2 0x2F6 JUMPI DUP1 PUSH4 0x2F745C59 EQ PUSH2 0x300 JUMPI DUP1 PUSH4 0x3F4BA83A EQ PUSH2 0x33C JUMPI DUP1 PUSH4 0x42842E0E EQ PUSH2 0x352 JUMPI PUSH2 0x1CC JUMP JUMPDEST DUP1 PUSH4 0x95EA7B3 GT PUSH2 0x1AA JUMPI DUP1 PUSH4 0x95EA7B3 EQ PUSH2 0x272 JUMPI DUP1 PUSH4 0x102A6A73 EQ PUSH2 0x29A JUMPI DUP1 PUSH4 0x18160DDD EQ PUSH2 0x2A4 JUMPI DUP1 PUSH4 0x23B872DD EQ PUSH2 0x2CE JUMPI PUSH2 0x1CC JUMP JUMPDEST DUP1 PUSH4 0x1FFC9A7 EQ PUSH2 0x1D0 JUMPI DUP1 PUSH4 0x6FDDE03 EQ PUSH2 0x20C JUMPI DUP1 PUSH4 0x81812FC EQ PUSH2 0x236 JUMPI JUMPDEST PUSH0 PUSH0 REVERT JUMPDEST CALLVALUE DUP1 ISZERO PUSH2 0x1DB JUMPI PUSH0 PUSH0 REVERT JUMPDEST POP PUSH2 0x1F6 PUSH1 0x4 DUP1 CALLDATASIZE SUB DUP2 ADD SWAP1 PUSH2 0x1F1 SWAP2 SWAP1 PUSH2 0x265D JUMP JUMPDEST PUSH2 0x6D0 JUMP JUMPDEST PUSH1 0x40 MLOAD PUSH2 0x203 SWAP2 SWAP1 PUSH2 0x26A2 JUMP JUMPDEST PUSH1 0x40 MLOAD DUP1 SWAP2 SUB SWAP1 RETURN JUMPDEST CALLVALUE DUP1 ISZERO PUSH2 0x217 JUMPI PUSH0 PUSH0 REVERT JUMPDEST POP PUSH2 0x220 PUSH2 0x6E1 JUMP JUMPDEST PUSH1 0x40 MLOAD PUSH2 0x22D SWAP2 SWAP1 PUSH2 0x272B JUMP JUMPDEST PUSH1 0x40 MLOAD DUP1 SWAP2 SUB SWAP1 RETURN JUMPDEST CALLVALUE DUP1 ISZERO PUSH2 0x241 JUMPI PUSH0 PUSH0 REVERT JUMPDEST POP PUSH2 0x25C PUSH1 0x4 DUP1 CALLDATASIZE SUB DUP2 ADD SWAP1 PUSH2 0x257 SWAP2 SWAP1 PUSH2 0x277E JUMP JUMPDEST PUSH2 0x770 JUMP JUMPDEST PUSH1 0x40 MLOAD PUSH2 0x269 SWAP2 SWAP1 PUSH2 0x27E8 JUMP JUMPDEST PUSH1 0x40 MLOAD DUP1 SWAP2 SUB SWAP1 RETURN JUMPDEST CALLVALUE DUP1 ISZERO PUSH2 0x27D JUMPI PUSH0 PUSH0 REVERT JUMPDEST POP PUSH2 0x298 PUSH1 0x4 DUP1 CALLDATASIZE SUB DUP2 ADD SWAP1 PUSH2 0x293 SWAP2 SWAP1 PUSH2 0x282B JUMP JUMPDEST PUSH2 0x78B JUMP JUMPDEST STOP JUMPDEST PUSH2 0x2A2 PUSH2 0x7A1 JUMP JUMPDEST STOP JUMPDEST CALLVALUE DUP1 ISZERO PUSH2 0x2AF JUMPI PUSH0 PUSH0 REVERT JUMPDEST POP PUSH2 0x2B8 PUSH2 0x8CC JUMP JUMPDEST PUSH1 0x40 MLOAD PUSH2 0x2C5 SWAP2 SWAP1 PUSH2 0x2878 JUMP JUMPDEST PUSH1 0x40 MLOAD DUP1 SWAP2 SUB SWAP1 RETURN JUMPDEST CALLVALUE DUP1 ISZERO PUSH2 0x2D9 JUMPI PUSH0 PUSH0 REVERT JUMPDEST POP PUSH2 0x2F4 PUSH1 0x4 DUP1 CALLDATASIZE SUB DUP2 ADD SWAP1 PUSH2 0x2EF SWAP2 SWAP1 PUSH2 0x2891 JUMP JUMPDEST PUSH2 0x8D8 JUMP JUMPDEST STOP JUMPDEST PUSH2 0x2FE PUSH2 0x9D7 JUMP JUMPDEST STOP JUMPDEST CALLVALUE DUP1 ISZERO PUSH2 0x30B JUMPI PUSH0 PUSH0 REVERT JUMPDEST POP PUSH2 0x326 PUSH1 0x4 DUP1 CALLDATASIZE SUB DUP2 ADD SWAP1 PUSH2 0x321 SWAP2 SWAP1 PUSH2 0x282B JUMP JUMPDEST PUSH2 0xA78 JUMP JUMPDEST PUSH1 0x40 MLOAD PUSH2 0x333 SWAP2 SWAP1 PUSH2 0x2878 JUMP JUMPDEST PUSH1 0x40 MLOAD DUP1 SWAP2 SUB SWAP1 RETURN JUMPDEST CALLVALUE DUP1 ISZERO PUSH2 0x347 JUMPI PUSH0 PUSH0 REVERT JUMPDEST POP PUSH2 0x350 PUSH2 0xB1C JUMP JUMPDEST STOP JUMPDEST CALLVALUE DUP1 ISZERO PUSH2 0x35D JUMPI PUSH0 PUSH0 REVERT JUMPDEST POP PUSH2 0x378 PUSH1 0x4 DUP1 CALLDATASIZE SUB DUP2 ADD SWAP1 PUSH2 0x373 SWAP2 SWAP1 PUSH2 0x2891 JUMP JUMPDEST PUSH2 0xB2E JUMP JUMPDEST STOP JUMPDEST CALLVALUE DUP1 ISZERO PUSH2 0x385 JUMPI PUSH0 PUSH0 REVERT JUMPDEST POP PUSH2 0x3A0 PUSH1 0x4 DUP1 CALLDATASIZE SUB DUP2 ADD SWAP1 PUSH2 0x39B SWAP2 SWAP1 PUSH2 0x277E JUMP JUMPDEST PUSH2 0xB4D JUMP JUMPDEST PUSH1 0x40 MLOAD PUSH2 0x3AD SWAP2 SWAP1 PUSH2 0x2878 JUMP JUMPDEST PUSH1 0x40 MLOAD DUP1 SWAP2 SUB SWAP1 RETURN JUMPDEST CALLVALUE DUP1 ISZERO PUSH2 0x3C1 JUMPI PUSH0 PUSH0 REVERT JUMPDEST POP PUSH2 0x3DC PUSH1 0x4 DUP1 CALLDATASIZE SUB DUP2 ADD SWAP1 PUSH2 0x3D7 SWAP2 SWAP1 PUSH2 0x28E1 JUMP JUMPDEST PUSH2 0xBBF JUMP JUMPDEST STOP JUMPDEST CALLVALUE DUP1 ISZERO PUSH2 0x3E9 JUMPI PUSH0 PUSH0 REVERT JUMPDEST POP PUSH2 0x3F2 PUSH2 0xC13 JUMP JUMPDEST PUSH1 0x40 MLOAD PUSH2 0x3FF SWAP2 SWAP1 PUSH2 0x26A2 JUMP JUMPDEST PUSH1 0x40 MLOAD DUP1 SWAP2 SUB SWAP1 RETURN JUMPDEST CALLVALUE DUP1 ISZERO PUSH2 0x413 JUMPI PUSH0 PUSH0 REVERT JUMPDEST POP PUSH2 0x42E PUSH1 0x4 DUP1 CALLDATASIZE SUB DUP2 ADD SWAP1 PUSH2 0x429 SWAP2 SWAP1 PUSH2 0x277E JUMP JUMPDEST PUSH2 0xC28 JUMP JUMPDEST PUSH1 0x40 MLOAD PUSH2 0x43B SWAP2 SWAP1 PUSH2 0x27E8 JUMP JUMPDEST PUSH1 0x40 MLOAD DUP1 SWAP2 SUB SWAP1 RETURN JUMPDEST CALLVALUE DUP1 ISZERO PUSH2 0x44F JUMPI PUSH0 PUSH0 REVERT JUMPDEST POP PUSH2 0x46A PUSH1 0x4 DUP1 CALLDATASIZE SUB DUP2 ADD SWAP1 PUSH2 0x465 SWAP2 SWAP1 PUSH2 0x296D JUMP JUMPDEST PUSH2 0xC39 JUMP JUMPDEST STOP JUMPDEST CALLVALUE DUP1 ISZERO PUSH2 0x477 JUMPI PUSH0 PUSH0 REVERT JUMPDEST POP PUSH2 0x492 PUSH1 0x4 DUP1 CALLDATASIZE SUB DUP2 ADD SWAP1 PUSH2 0x48D SWAP2 SWAP1 PUSH2 0x28E1 JUMP JUMPDEST PUSH2 0xCDF JUMP JUMPDEST PUSH1 0x40 MLOAD PUSH2 0x49F SWAP2 SWAP1 PUSH2 0x2878 JUMP JUMPDEST PUSH1 0x40 MLOAD DUP1 SWAP2 SUB SWAP1 RETURN JUMPDEST CALLVALUE DUP1 ISZERO PUSH2 0x4B3 JUMPI PUSH0 PUSH0 REVERT JUMPDEST POP PUSH2 0x4BC PUSH2 0xD95 JUMP JUMPDEST STOP JUMPDEST CALLVALUE DUP1 ISZERO PUSH2 0x4C9 JUMPI PUSH0 PUSH0 REVERT JUMPDEST POP PUSH2 0x4D2 PUSH2 0xDA8 JUMP JUMPDEST STOP JUMPDEST CALLVALUE DUP1 ISZERO PUSH2 0x4DF JUMPI PUSH0 PUSH0 REVERT JUMPDEST POP PUSH2 0x4E8 PUSH2 0xDBA JUMP JUMPDEST PUSH1 0x40 MLOAD PUSH2 0x4F5 SWAP2 SWAP1 PUSH2 0x27E8 JUMP JUMPDEST PUSH1 0x40 MLOAD DUP1 SWAP2 SUB SWAP1 RETURN JUMPDEST CALLVALUE DUP1 ISZERO PUSH2 0x509 JUMPI PUSH0 PUSH0 REVERT JUMPDEST POP PUSH2 0x524 PUSH1 0x4 DUP1 CALLDATASIZE SUB DUP2 ADD SWAP1 PUSH2 0x51F SWAP2 SWAP1 PUSH2 0x29E2 JUMP JUMPDEST PUSH2 0xDE3 JUMP JUMPDEST STOP JUMPDEST CALLVALUE DUP1 ISZERO PUSH2 0x531 JUMPI PUSH0 PUSH0 REVERT JUMPDEST POP PUSH2 0x53A PUSH2 0xE22 JUMP JUMPDEST PUSH1 0x40 MLOAD PUSH2 0x547 SWAP2 SWAP1 PUSH2 0x272B JUMP JUMPDEST PUSH1 0x40 MLOAD DUP1 SWAP2 SUB SWAP1 RETURN JUMPDEST CALLVALUE DUP1 ISZERO PUSH2 0x55B JUMPI PUSH0 PUSH0 REVERT JUMPDEST POP PUSH2 0x576 PUSH1 0x4 DUP1 CALLDATASIZE SUB DUP2 ADD SWAP1 PUSH2 0x571 SWAP2 SWAP1 PUSH2 0x28E1 JUMP JUMPDEST PUSH2 0xEB2 JUMP JUMPDEST PUSH1 0x40 MLOAD PUSH2 0x583 SWAP2 SWAP1 PUSH2 0x26A2 JUMP JUMPDEST PUSH1 0x40 MLOAD DUP1 SWAP2 SUB SWAP1 RETURN JUMPDEST CALLVALUE DUP1 ISZERO PUSH2 0x597 JUMPI PUSH0 PUSH0 REVERT JUMPDEST POP PUSH2 0x5B2 PUSH1 0x4 DUP1 CALLDATASIZE SUB DUP2 ADD SWAP1 PUSH2 0x5AD SWAP2 SWAP1 PUSH2 0x2A20 JUMP JUMPDEST PUSH2 0xECF JUMP JUMPDEST STOP JUMPDEST CALLVALUE DUP1 ISZERO PUSH2 0x5BF JUMPI PUSH0 PUSH0 REVERT JUMPDEST POP PUSH2 0x5DA PUSH1 0x4 DUP1 CALLDATASIZE SUB DUP2 ADD SWAP1 PUSH2 0x5D5 SWAP2 SWAP1 PUSH2 0x2B86 JUMP JUMPDEST PUSH2 0xEE5 JUMP JUMPDEST STOP JUMPDEST CALLVALUE DUP1 ISZERO PUSH2 0x5E7 JUMPI PUSH0 PUSH0 REVERT JUMPDEST POP PUSH2 0x5F0 PUSH2 0xF0A JUMP JUMPDEST PUSH1 0x40 MLOAD PUSH2 0x5FD SWAP2 SWAP1 PUSH2 0x26A2 JUMP JUMPDEST PUSH1 0x40 MLOAD DUP1 SWAP2 SUB SWAP1 RETURN JUMPDEST CALLVALUE DUP1 ISZERO PUSH2 0x611 JUMPI PUSH0 PUSH0 REVERT JUMPDEST POP PUSH2 0x62C PUSH1 0x4 DUP1 CALLDATASIZE SUB DUP2 ADD SWAP1 PUSH2 0x627 SWAP2 SWAP1 PUSH2 0x277E JUMP JUMPDEST PUSH2 0xF1C JUMP JUMPDEST PUSH1 0x40 MLOAD PUSH2 0x639 SWAP2 SWAP1 PUSH2 0x272B JUMP JUMPDEST PUSH1 0x40 MLOAD DUP1 SWAP2 SUB SWAP1 RETURN JUMPDEST CALLVALUE DUP1 ISZERO PUSH2 0x64D JUMPI PUSH0 PUSH0 REVERT JUMPDEST POP PUSH2 0x668 PUSH1 0x4 DUP1 CALLDATASIZE SUB DUP2 ADD SWAP1 PUSH2 0x663 SWAP2 SWAP1 PUSH2 0x2C06 JUMP JUMPDEST PUSH2 0xF82 JUMP JUMPDEST PUSH1 0x40 MLOAD PUSH2 0x675 SWAP2 SWAP1 PUSH2 0x26A2 JUMP JUMPDEST PUSH1 0x40 MLOAD DUP1 SWAP2 SUB SWAP1 RETURN JUMPDEST CALLVALUE DUP1 ISZERO PUSH2 0x689 JUMPI PUSH0 PUSH0 REVERT JUMPDEST POP PUSH2 0x6A4 PUSH1 0x4 DUP1 CALLDATASIZE SUB DUP2 ADD SWAP1 PUSH2 0x69F SWAP2 SWAP1 PUSH2 0x28E1 JUMP JUMPDEST PUSH2 0x1010 JUMP JUMPDEST STOP JUMPDEST CALLVALUE DUP1 ISZERO PUSH2 0x6B1 JUMPI PUSH0 PUSH0 REVERT JUMPDEST POP PUSH2 0x6BA PUSH2 0x1094 JUMP JUMPDEST PUSH1 0x40 MLOAD PUSH2 0x6C7 SWAP2 SWAP1 PUSH2 0x26A2 JUMP JUMPDEST PUSH1 0x40 MLOAD DUP1 SWAP2 SUB SWAP1 RETURN JUMPDEST PUSH0 PUSH2 0x6DA DUP3 PUSH2 0x10A7 JUMP JUMPDEST SWAP1 POP SWAP2 SWAP1 POP JUMP JUMPDEST PUSH1 0x60 PUSH0 DUP1 SLOAD PUSH2 0x6EF SWAP1 PUSH2 0x2C71 JUMP JUMPDEST DUP1 PUSH1 0x1F ADD PUSH1 0x20 DUP1 SWAP2 DIV MUL PUSH1 0x20 ADD PUSH1 0x40 MLOAD SWAP1 DUP2 ADD PUSH1 0x40 MSTORE DUP1 SWAP3 SWAP2 SWAP1 DUP2 DUP2 MSTORE PUSH1 0x20 ADD DUP3 DUP1 SLOAD PUSH2 0x71B SWAP1 PUSH2 0x2C71 JUMP JUMPDEST DUP1 ISZERO PUSH2 0x766 JUMPI DUP1 PUSH1 0x1F LT PUSH2 0x73D JUMPI PUSH2 0x100 DUP1 DUP4 SLOAD DIV MUL DUP4 MSTORE SWAP2 PUSH1 0x20 ADD SWAP2 PUSH2 0x766 JUMP JUMPDEST DUP3 ADD SWAP2 SWAP1 PUSH0 MSTORE PUSH1 0x20 PUSH0 KECCAK256 SWAP1 JUMPDEST DUP2 SLOAD DUP2 MSTORE SWAP1 PUSH1 0x1 ADD SWAP1 PUSH1 0x20 ADD DUP1 DUP4 GT PUSH2 0x749 JUMPI DUP3 SWAP1 SUB PUSH1 0x1F AND DUP3 ADD SWAP2 JUMPDEST POP POP POP POP POP SWAP1 POP SWAP1 JUMP JUMPDEST PUSH0 PUSH2 0x77A DUP3 PUSH2 0x1120 JUMP JUMPDEST POP PUSH2 0x784 DUP3 PUSH2 0x11A6 JUMP JUMPDEST SWAP1 POP SWAP2 SWAP1 POP JUMP JUMPDEST PUSH2 0x79D DUP3 DUP3 PUSH2 0x798 PUSH2 0x11DF JUMP JUMPDEST PUSH2 0x11E6 JUMP JUMPDEST POP POP JUMP JUMPDEST PUSH1 0xD PUSH1 0x1 SWAP1 SLOAD SWAP1 PUSH2 0x100 EXP SWAP1 DIV PUSH1 0xFF AND PUSH2 0x7F0 JUMPI PUSH1 0x40 MLOAD PUSH32 0x8C379A000000000000000000000000000000000000000000000000000000000 DUP2 MSTORE PUSH1 0x4 ADD PUSH2 0x7E7 SWAP1 PUSH2 0x2D11 JUMP JUMPDEST PUSH1 0x40 MLOAD DUP1 SWAP2 SUB SWAP1 REVERT JUMPDEST PUSH1 0xE PUSH0 CALLER PUSH20 0xFFFFFFFFFFFFFFFFFFFFFFFFFFFFFFFFFFFFFFFF AND PUSH20 0xFFFFFFFFFFFFFFFFFFFFFFFFFFFFFFFFFFFFFFFF AND DUP2 MSTORE PUSH1 0x20 ADD SWAP1 DUP2 MSTORE PUSH1 0x20 ADD PUSH0 KECCAK256 PUSH0 SWAP1 SLOAD SWAP1 PUSH2 0x100 EXP SWAP1 DIV PUSH1 0xFF AND PUSH2 0x879 JUMPI PUSH1 0x40 MLOAD PUSH32 0x8C379A000000000000000000000000000000000000000000000000000000000 DUP2 MSTORE PUSH1 0x4 ADD PUSH2 0x870 SWAP1 PUSH2 0x2D79 JUMP JUMPDEST PUSH1 0x40 MLOAD DUP1 SWAP2 SUB SWAP1 REVERT JUMPDEST PUSH7 0xAA87BEE538000 CALLVALUE EQ PUSH2 0x8C2 JUMPI PUSH1 0x40 MLOAD PUSH32 0x8C379A000000000000000000000000000000000000000000000000000000000 DUP2 MSTORE PUSH1 0x4 ADD PUSH2 0x8B9 SWAP1 PUSH2 0x2DE1 JUMP JUMPDEST PUSH1 0x40 MLOAD DUP1 SWAP2 SUB SWAP1 REVERT JUMPDEST PUSH2 0x8CA PUSH2 0x11F8 JUMP JUMPDEST JUMP JUMPDEST PUSH0 PUSH1 0x8 DUP1 SLOAD SWAP1 POP SWAP1 POP SWAP1 JUMP JUMPDEST PUSH0 PUSH20 0xFFFFFFFFFFFFFFFFFFFFFFFFFFFFFFFFFFFFFFFF AND DUP3 PUSH20 0xFFFFFFFFFFFFFFFFFFFFFFFFFFFFFFFFFFFFFFFF AND SUB PUSH2 0x948 JUMPI PUSH0 PUSH1 0x40 MLOAD PUSH32 0x64A0AE9200000000000000000000000000000000000000000000000000000000 DUP2 MSTORE PUSH1 0x4 ADD PUSH2 0x93F SWAP2 SWAP1 PUSH2 0x27E8 JUMP JUMPDEST PUSH1 0x40 MLOAD DUP1 SWAP2 SUB SWAP1 REVERT JUMPDEST PUSH0 PUSH2 0x95B DUP4 DUP4 PUSH2 0x956 PUSH2 0x11DF JUMP JUMPDEST PUSH2 0x1269 JUMP JUMPDEST SWAP1 POP DUP4 PUSH20 0xFFFFFFFFFFFFFFFFFFFFFFFFFFFFFFFFFFFFFFFF AND DUP2 PUSH20 0xFFFFFFFFFFFFFFFFFFFFFFFFFFFFFFFFFFFFFFFF AND EQ PUSH2 0x9D1 JUMPI DUP4 DUP3 DUP3 PUSH1 0x40 MLOAD PUSH32 0x64283D7B00000000000000000000000000000000000000000000000000000000 DUP2 MSTORE PUSH1 0x4 ADD PUSH2 0x9C8 SWAP4 SWAP3 SWAP2 SWAP1 PUSH2 0x2DFF JUMP JUMPDEST PUSH1 0x40 MLOAD DUP1 SWAP2 SUB SWAP1 REVERT JUMPDEST POP POP POP POP JUMP JUMPDEST PUSH1 0xD PUSH0 SWAP1 SLOAD SWAP1 PUSH2 0x100 EXP SWAP1 DIV PUSH1 0xFF AND PUSH2 0xA25 JUMPI PUSH1 0x40 MLOAD PUSH32 0x8C379A000000000000000000000000000000000000000000000000000000000 DUP2 MSTORE PUSH1 0x4 ADD PUSH2 0xA1C SWAP1 PUSH2 0x2D11 JUMP JUMPDEST PUSH1 0x40 MLOAD DUP1 SWAP2 SUB SWAP1 REVERT JUMPDEST PUSH7 0x6A94D74F430000 CALLVALUE EQ PUSH2 0xA6E JUMPI PUSH1 0x40 MLOAD PUSH32 0x8C379A000000000000000000000000000000000000000000000000000000000 DUP2 MSTORE PUSH1 0x4 ADD PUSH2 0xA65 SWAP1 PUSH2 0x2DE1 JUMP JUMPDEST PUSH1 0x40 MLOAD DUP1 SWAP2 SUB SWAP1 REVERT JUMPDEST PUSH2 0xA76 PUSH2 0x11F8 JUMP JUMPDEST JUMP JUMPDEST PUSH0 PUSH2 0xA82 DUP4 PUSH2 0xCDF JUMP JUMPDEST DUP3 LT PUSH2 0xAC7 JUMPI DUP3 DUP3 PUSH1 0x40 MLOAD PUSH32 0xA57D13DC00000000000000000000000000000000000000000000000000000000 DUP2 MSTORE PUSH1 0x4 ADD PUSH2 0xABE SWAP3 SWAP2 SWAP1 PUSH2 0x2E34 JUMP JUMPDEST PUSH1 0x40 MLOAD DUP1 SWAP2 SUB SWAP1 REVERT JUMPDEST PUSH1 0x6 PUSH0 DUP5 PUSH20 0xFFFFFFFFFFFFFFFFFFFFFFFFFFFFFFFFFFFFFFFF AND PUSH20 0xFFFFFFFFFFFFFFFFFFFFFFFFFFFFFFFFFFFFFFFF AND DUP2 MSTORE PUSH1 0x20 ADD SWAP1 DUP2 MSTORE PUSH1 0x20 ADD PUSH0 KECCAK256 PUSH0 DUP4 DUP2 MSTORE PUSH1 0x20 ADD SWAP1 DUP2 MSTORE PUSH1 0x20 ADD PUSH0 KECCAK256 SLOAD SWAP1 POP SWAP3 SWAP2 POP POP JUMP JUMPDEST PUSH2 0xB24 PUSH2 0x127E JUMP JUMPDEST PUSH2 0xB2C PUSH2 0x1305 JUMP JUMPDEST JUMP JUMPDEST PUSH2 0xB48 DUP4 DUP4 DUP4 PUSH1 0x40 MLOAD DUP1 PUSH1 0x20 ADD PUSH1 0x40 MSTORE DUP1 PUSH0 DUP2 MSTORE POP PUSH2 0xEE5 JUMP JUMPDEST POP POP POP JUMP JUMPDEST PUSH0 PUSH2 0xB56 PUSH2 0x8CC JUMP JUMPDEST DUP3 LT PUSH2 0xB9B JUMPI PUSH0 DUP3 PUSH1 0x40 MLOAD PUSH32 0xA57D13DC00000000000000000000000000000000000000000000000000000000 DUP2 MSTORE PUSH1 0x4 ADD PUSH2 0xB92 SWAP3 SWAP2 SWAP1 PUSH2 0x2E34 JUMP JUMPDEST PUSH1 0x40 MLOAD DUP1 SWAP2 SUB SWAP1 REVERT JUMPDEST PUSH1 0x8 DUP3 DUP2 SLOAD DUP2 LT PUSH2 0xBAF JUMPI PUSH2 0xBAE PUSH2 0x2E5B JUMP JUMPDEST JUMPDEST SWAP1 PUSH0 MSTORE PUSH1 0x20 PUSH0 KECCAK256 ADD SLOAD SWAP1 POP SWAP2 SWAP1 POP JUMP JUMPDEST PUSH2 0xBC7 PUSH2 0x127E JUMP JUMPDEST PUSH0 SELFBALANCE SWAP1 POP DUP2 PUSH20 0xFFFFFFFFFFFFFFFFFFFFFFFFFFFFFFFFFFFFFFFF AND PUSH2 0x8FC DUP3 SWAP1 DUP2 ISZERO MUL SWAP1 PUSH1 0x40 MLOAD PUSH0 PUSH1 0x40 MLOAD DUP1 DUP4 SUB DUP2 DUP6 DUP9 DUP9 CALL SWAP4 POP POP POP POP ISZERO DUP1 ISZERO PUSH2 0xC0E JUMPI RETURNDATASIZE PUSH0 PUSH0 RETURNDATACOPY RETURNDATASIZE PUSH0 REVERT JUMPDEST POP POP POP JUMP JUMPDEST PUSH0 PUSH1 0xA PUSH0 SWAP1 SLOAD SWAP1 PUSH2 0x100 EXP SWAP1 DIV PUSH1 0xFF AND SWAP1 POP SWAP1 JUMP JUMPDEST PUSH0 PUSH2 0xC32 DUP3 PUSH2 0x1120 JUMP JUMPDEST SWAP1 POP SWAP2 SWAP1 POP JUMP JUMPDEST PUSH2 0xC41 PUSH2 0x127E JUMP JUMPDEST PUSH0 PUSH0 SWAP1 POP JUMPDEST DUP3 DUP3 SWAP1 POP DUP2 LT ISZERO PUSH2 0xCDA JUMPI PUSH1 0x1 PUSH1 0xE PUSH0 DUP6 DUP6 DUP6 DUP2 DUP2 LT PUSH2 0xC69 JUMPI PUSH2 0xC68 PUSH2 0x2E5B JUMP JUMPDEST JUMPDEST SWAP1 POP PUSH1 0x20 MUL ADD PUSH1 0x20 DUP2 ADD SWAP1 PUSH2 0xC7E SWAP2 SWAP1 PUSH2 0x28E1 JUMP JUMPDEST PUSH20 0xFFFFFFFFFFFFFFFFFFFFFFFFFFFFFFFFFFFFFFFF AND PUSH20 0xFFFFFFFFFFFFFFFFFFFFFFFFFFFFFFFFFFFFFFFF AND DUP2 MSTORE PUSH1 0x20 ADD SWAP1 DUP2 MSTORE PUSH1 0x20 ADD PUSH0 KECCAK256 PUSH0 PUSH2 0x100 EXP DUP2 SLOAD DUP2 PUSH1 0xFF MUL NOT AND SWAP1 DUP4 ISZERO ISZERO MUL OR SWAP1 SSTORE POP DUP1 DUP1 PUSH1 0x1 ADD SWAP2 POP POP PUSH2 0xC46 JUMP JUMPDEST POP POP POP JUMP JUMPDEST PUSH0 PUSH0 PUSH20 0xFFFFFFFFFFFFFFFFFFFFFFFFFFFFFFFFFFFFFFFF AND DUP3 PUSH20 0xFFFFFFFFFFFFFFFFFFFFFFFFFFFFFFFFFFFFFFFF AND SUB PUSH2 0xD50 JUMPI PUSH0 PUSH1 0x40 MLOAD PUSH32 0x89C62B6400000000000000000000000000000000000000000000000000000000 DUP2 MSTORE PUSH1 0x4 ADD PUSH2 0xD47 SWAP2 SWAP1 PUSH2 0x27E8 JUMP JUMPDEST PUSH1 0x40 MLOAD DUP1 SWAP2 SUB SWAP1 REVERT JUMPDEST PUSH1 0x3 PUSH0 DUP4 PUSH20 0xFFFFFFFFFFFFFFFFFFFFFFFFFFFFFFFFFFFFFFFF AND PUSH20 0xFFFFFFFFFFFFFFFFFFFFFFFFFFFFFFFFFFFFFFFF AND DUP2 MSTORE PUSH1 0x20 ADD SWAP1 DUP2 MSTORE PUSH1 0x20 ADD PUSH0 KECCAK256 SLOAD SWAP1 POP SWAP2 SWAP1 POP JUMP JUMPDEST PUSH2 0xD9D PUSH2 0x127E JUMP JUMPDEST PUSH2 0xDA6 PUSH0 PUSH2 0x1366 JUMP JUMPDEST JUMP JUMPDEST PUSH2 0xDB0 PUSH2 0x127E JUMP JUMPDEST PUSH2 0xDB8 PUSH2 0x142B JUMP JUMPDEST JUMP JUMPDEST PUSH0 PUSH1 0xA PUSH1 0x1 SWAP1 SLOAD SWAP1 PUSH2 0x100 EXP SWAP1 DIV PUSH20 0xFFFFFFFFFFFFFFFFFFFFFFFFFFFFFFFFFFFFFFFF AND SWAP1 POP SWAP1 JUMP JUMPDEST PUSH2 0xDEB PUSH2 0x127E JUMP JUMPDEST DUP2 PUSH1 0xD PUSH1 0x1 PUSH2 0x100 EXP DUP2 SLOAD DUP2 PUSH1 0xFF MUL NOT AND SWAP1 DUP4 ISZERO ISZERO MUL OR SWAP1 SSTORE POP DUP1 PUSH1 0xD PUSH0 PUSH2 0x100 EXP DUP2 SLOAD DUP2 PUSH1 0xFF MUL NOT AND SWAP1 DUP4 ISZERO ISZERO MUL OR SWAP1 SSTORE POP POP POP JUMP JUMPDEST PUSH1 0x60 PUSH1 0x1 DUP1 SLOAD PUSH2 0xE31 SWAP1 PUSH2 0x2C71 JUMP JUMPDEST DUP1 PUSH1 0x1F ADD PUSH1 0x20 DUP1 SWAP2 DIV MUL PUSH1 0x20 ADD PUSH1 0x40 MLOAD SWAP1 DUP2 ADD PUSH1 0x40 MSTORE DUP1 SWAP3 SWAP2 SWAP1 DUP2 DUP2 MSTORE PUSH1 0x20 ADD DUP3 DUP1 SLOAD PUSH2 0xE5D SWAP1 PUSH2 0x2C71 JUMP JUMPDEST DUP1 ISZERO PUSH2 0xEA8 JUMPI DUP1 PUSH1 0x1F LT PUSH2 0xE7F JUMPI PUSH2 0x100 DUP1 DUP4 SLOAD DIV MUL DUP4 MSTORE SWAP2 PUSH1 0x20 ADD SWAP2 PUSH2 0xEA8 JUMP JUMPDEST DUP3 ADD SWAP2 SWAP1 PUSH0 MSTORE PUSH1 0x20 PUSH0 KECCAK256 SWAP1 JUMPDEST DUP2 SLOAD DUP2 MSTORE SWAP1 PUSH1 0x1 ADD SWAP1 PUSH1 0x20 ADD DUP1 DUP4 GT PUSH2 0xE8B JUMPI DUP3 SWAP1 SUB PUSH1 0x1F AND DUP3 ADD SWAP2 JUMPDEST POP POP POP POP POP SWAP1 POP SWAP1 JUMP JUMPDEST PUSH1 0xE PUSH1 0x20 MSTORE DUP1 PUSH0 MSTORE PUSH1 0x40 PUSH0 KECCAK256 PUSH0 SWAP2 POP SLOAD SWAP1 PUSH2 0x100 EXP SWAP1 DIV PUSH1 0xFF AND DUP2 JUMP JUMPDEST PUSH2 0xEE1 PUSH2 0xEDA PUSH2 0x11DF JUMP JUMPDEST DUP4 DUP4 PUSH2 0x148D JUMP JUMPDEST POP POP JUMP JUMPDEST PUSH2 0xEF0 DUP5 DUP5 DUP5 PUSH2 0x8D8 JUMP JUMPDEST PUSH2 0xF04 PUSH2 0xEFB PUSH2 0x11DF JUMP JUMPDEST DUP6 DUP6 DUP6 DUP6 PUSH2 0x15F6 JUMP JUMPDEST POP POP POP POP JUMP JUMPDEST PUSH1 0xD PUSH0 SWAP1 SLOAD SWAP1 PUSH2 0x100 EXP SWAP1 DIV PUSH1 0xFF AND DUP2 JUMP JUMPDEST PUSH1 0x60 PUSH2 0xF27 DUP3 PUSH2 0x1120 JUMP JUMPDEST POP PUSH0 PUSH2 0xF31 PUSH2 0x17A2 JUMP JUMPDEST SWAP1 POP PUSH0 DUP2 MLOAD GT PUSH2 0xF4F JUMPI PUSH1 0x40 MLOAD DUP1 PUSH1 0x20 ADD PUSH1 0x40 MSTORE DUP1 PUSH0 DUP2 MSTORE POP PUSH2 0xF7A JUMP JUMPDEST DUP1 PUSH2 0xF59 DUP5 PUSH2 0x17C2 JUMP JUMPDEST PUSH1 0x40 MLOAD PUSH1 0x20 ADD PUSH2 0xF6A SWAP3 SWAP2 SWAP1 PUSH2 0x2EC2 JUMP JUMPDEST PUSH1 0x40 MLOAD PUSH1 0x20 DUP2 DUP4 SUB SUB DUP2 MSTORE SWAP1 PUSH1 0x40 MSTORE JUMPDEST SWAP2 POP POP SWAP2 SWAP1 POP JUMP JUMPDEST PUSH0 PUSH1 0x5 PUSH0 DUP5 PUSH20 0xFFFFFFFFFFFFFFFFFFFFFFFFFFFFFFFFFFFFFFFF AND PUSH20 0xFFFFFFFFFFFFFFFFFFFFFFFFFFFFFFFFFFFFFFFF AND DUP2 MSTORE PUSH1 0x20 ADD SWAP1 DUP2 MSTORE PUSH1 0x20 ADD PUSH0 KECCAK256 PUSH0 DUP4 PUSH20 0xFFFFFFFFFFFFFFFFFFFFFFFFFFFFFFFFFFFFFFFF AND PUSH20 0xFFFFFFFFFFFFFFFFFFFFFFFFFFFFFFFFFFFFFFFF AND DUP2 MSTORE PUSH1 0x20 ADD SWAP1 DUP2 MSTORE PUSH1 0x20 ADD PUSH0 KECCAK256 PUSH0 SWAP1 SLOAD SWAP1 PUSH2 0x100 EXP SWAP1 DIV PUSH1 0xFF AND SWAP1 POP SWAP3 SWAP2 POP POP JUMP JUMPDEST PUSH2 0x1018 PUSH2 0x127E JUMP JUMPDEST PUSH0 PUSH20 0xFFFFFFFFFFFFFFFFFFFFFFFFFFFFFFFFFFFFFFFF AND DUP2 PUSH20 0xFFFFFFFFFFFFFFFFFFFFFFFFFFFFFFFFFFFFFFFF AND SUB PUSH2 0x1088 JUMPI PUSH0 PUSH1 0x40 MLOAD PUSH32 0x1E4FBDF700000000000000000000000000000000000000000000000000000000 DUP2 MSTORE PUSH1 0x4 ADD PUSH2 0x107F SWAP2 SWAP1 PUSH2 0x27E8 JUMP JUMPDEST PUSH1 0x40 MLOAD DUP1 SWAP2 SUB SWAP1 REVERT JUMPDEST PUSH2 0x1091 DUP2 PUSH2 0x1366 JUMP JUMPDEST POP JUMP JUMPDEST PUSH1 0xD PUSH1 0x1 SWAP1 SLOAD SWAP1 PUSH2 0x100 EXP SWAP1 DIV PUSH1 0xFF AND DUP2 JUMP JUMPDEST PUSH0 PUSH32 0x780E9D6300000000000000000000000000000000000000000000000000000000 PUSH28 0xFFFFFFFFFFFFFFFFFFFFFFFFFFFFFFFFFFFFFFFFFFFFFFFFFFFFFFFF NOT AND DUP3 PUSH28 0xFFFFFFFFFFFFFFFFFFFFFFFFFFFFFFFFFFFFFFFFFFFFFFFFFFFFFFFF NOT AND EQ DUP1 PUSH2 0x1119 JUMPI POP PUSH2 0x1118 DUP3 PUSH2 0x188C JUMP JUMPDEST JUMPDEST SWAP1 POP SWAP2 SWAP1 POP JUMP JUMPDEST PUSH0 PUSH0 PUSH2 0x112B DUP4 PUSH2 0x196D JUMP JUMPDEST SWAP1 POP PUSH0 PUSH20 0xFFFFFFFFFFFFFFFFFFFFFFFFFFFFFFFFFFFFFFFF AND DUP2 PUSH20 0xFFFFFFFFFFFFFFFFFFFFFFFFFFFFFFFFFFFFFFFF AND SUB PUSH2 0x119D JUMPI DUP3 PUSH1 0x40 MLOAD PUSH32 0x7E27328900000000000000000000000000000000000000000000000000000000 DUP2 MSTORE PUSH1 0x4 ADD PUSH2 0x1194 SWAP2 SWAP1 PUSH2 0x2878 JUMP JUMPDEST PUSH1 0x40 MLOAD DUP1 SWAP2 SUB SWAP1 REVERT JUMPDEST DUP1 SWAP2 POP POP SWAP2 SWAP1 POP JUMP JUMPDEST PUSH0 PUSH1 0x4 PUSH0 DUP4 DUP2 MSTORE PUSH1 0x20 ADD SWAP1 DUP2 MSTORE PUSH1 0x20 ADD PUSH0 KECCAK256 PUSH0 SWAP1 SLOAD SWAP1 PUSH2 0x100 EXP SWAP1 DIV PUSH20 0xFFFFFFFFFFFFFFFFFFFFFFFFFFFFFFFFFFFFFFFF AND SWAP1 POP SWAP2 SWAP1 POP JUMP JUMPDEST PUSH0 CALLER SWAP1 POP SWAP1 JUMP JUMPDEST PUSH2 0x11F3 DUP4 DUP4 DUP4 PUSH1 0x1 PUSH2 0x19A6 JUMP JUMPDEST POP POP POP JUMP JUMPDEST PUSH1 0xC SLOAD PUSH2 0x1203 PUSH2 0x8CC JUMP JUMPDEST LT PUSH2 0x1243 JUMPI PUSH1 0x40 MLOAD PUSH32 0x8C379A000000000000000000000000000000000000000000000000000000000 DUP2 MSTORE PUSH1 0x4 ADD PUSH2 0x123A SWAP1 PUSH2 0x2F2F JUMP JUMPDEST PUSH1 0x40 MLOAD DUP1 SWAP2 SUB SWAP1 REVERT JUMPDEST PUSH0 PUSH1 0xB PUSH0 DUP2 SLOAD DUP1 SWAP3 SWAP2 SWAP1 PUSH2 0x1256 SWAP1 PUSH2 0x2F7A JUMP JUMPDEST SWAP2 SWAP1 POP SSTORE SWAP1 POP PUSH2 0x1266 CALLER DUP3 PUSH2 0x1B65 JUMP JUMPDEST POP JUMP JUMPDEST PUSH0 PUSH2 0x1275 DUP5 DUP5 DUP5 PUSH2 0x1B82 JUMP JUMPDEST SWAP1 POP SWAP4 SWAP3 POP POP POP JUMP JUMPDEST PUSH2 0x1286 PUSH2 0x11DF JUMP JUMPDEST PUSH20 0xFFFFFFFFFFFFFFFFFFFFFFFFFFFFFFFFFFFFFFFF AND PUSH2 0x12A4 PUSH2 0xDBA JUMP JUMPDEST PUSH20 0xFFFFFFFFFFFFFFFFFFFFFFFFFFFFFFFFFFFFFFFF AND EQ PUSH2 0x1303 JUMPI PUSH2 0x12C7 PUSH2 0x11DF JUMP JUMPDEST PUSH1 0x40 MLOAD PUSH32 0x118CDAA700000000000000000000000000000000000000000000000000000000 DUP2 MSTORE PUSH1 0x4 ADD PUSH2 0x12FA SWAP2 SWAP1 PUSH2 0x27E8 JUMP JUMPDEST PUSH1 0x40 MLOAD DUP1 SWAP2 SUB SWAP1 REVERT JUMPDEST JUMP JUMPDEST PUSH2 0x130D PUSH2 0x1B9F JUMP JUMPDEST PUSH0 PUSH1 0xA PUSH0 PUSH2 0x100 EXP DUP2 SLOAD DUP2 PUSH1 0xFF MUL NOT AND SWAP1 DUP4 ISZERO ISZERO MUL OR SWAP1 SSTORE POP PUSH32 0x5DB9EE0A495BF2E6FF9C91A7834C1BA4FDD244A5E8AA4E537BD38AEAE4B073AA PUSH2 0x134F PUSH2 0x11DF JUMP JUMPDEST PUSH1 0x40 MLOAD PUSH2 0x135C SWAP2 SWAP1 PUSH2 0x27E8 JUMP JUMPDEST PUSH1 0x40 MLOAD DUP1 SWAP2 SUB SWAP1 LOG1 JUMP JUMPDEST PUSH0 PUSH1 0xA PUSH1 0x1 SWAP1 SLOAD SWAP1 PUSH2 0x100 EXP SWAP1 DIV PUSH20 0xFFFFFFFFFFFFFFFFFFFFFFFFFFFFFFFFFFFFFFFF AND SWAP1 POP DUP2 PUSH1 0xA PUSH1 0x1 PUSH2 0x100 EXP DUP2 SLOAD DUP2 PUSH20 0xFFFFFFFFFFFFFFFFFFFFFFFFFFFFFFFFFFFFFFFF MUL NOT AND SWAP1 DUP4 PUSH20 0xFFFFFFFFFFFFFFFFFFFFFFFFFFFFFFFFFFFFFFFF AND MUL OR SWAP1 SSTORE POP DUP2 PUSH20 0xFFFFFFFFFFFFFFFFFFFFFFFFFFFFFFFFFFFFFFFF AND DUP2 PUSH20 0xFFFFFFFFFFFFFFFFFFFFFFFFFFFFFFFFFFFFFFFF AND PUSH32 0x8BE0079C531659141344CD1FD0A4F28419497F9722A3DAAFE3B4186F6B6457E0 PUSH1 0x40 MLOAD PUSH1 0x40 MLOAD DUP1 SWAP2 SUB SWAP1 LOG3 POP POP JUMP JUMPDEST PUSH2 0x1433 PUSH2 0x1BDF JUMP JUMPDEST PUSH1 0x1 PUSH1 0xA PUSH0 PUSH2 0x100 EXP DUP2 SLOAD DUP2 PUSH1 0xFF MUL NOT AND SWAP1 DUP4 ISZERO ISZERO MUL OR SWAP1 SSTORE POP PUSH32 0x62E78CEA01BEE320CD4E420270B5EA74000D11B0C9F74754EBDBFC544B05A258 PUSH2 0x1476 PUSH2 0x11DF JUMP JUMPDEST PUSH1 0x40 MLOAD PUSH2 0x1483 SWAP2 SWAP1 PUSH2 0x27E8 JUMP JUMPDEST PUSH1 0x40 MLOAD DUP1 SWAP2 SUB SWAP1 LOG1 JUMP JUMPDEST PUSH0 PUSH20 0xFFFFFFFFFFFFFFFFFFFFFFFFFFFFFFFFFFFFFFFF AND DUP3 PUSH20 0xFFFFFFFFFFFFFFFFFFFFFFFFFFFFFFFFFFFFFFFF AND SUB PUSH2 0x14FD JUMPI DUP2 PUSH1 0x40 MLOAD PUSH32 0x5B08BA1800000000000000000000000000000000000000000000000000000000 DUP2 MSTORE PUSH1 0x4 ADD PUSH2 0x14F4 SWAP2 SWAP1 PUSH2 0x27E8 JUMP JUMPDEST PUSH1 0x40 MLOAD DUP1 SWAP2 SUB SWAP1 REVERT JUMPDEST DUP1 PUSH1 0x5 PUSH0 DUP6 PUSH20 0xFFFFFFFFFFFFFFFFFFFFFFFFFFFFFFFFFFFFFFFF AND PUSH20 0xFFFFFFFFFFFFFFFFFFFFFFFFFFFFFFFFFFFFFFFF AND DUP2 MSTORE PUSH1 0x20 ADD SWAP1 DUP2 MSTORE PUSH1 0x20 ADD PUSH0 KECCAK256 PUSH0 DUP5 PUSH20 0xFFFFFFFFFFFFFFFFFFFFFFFFFFFFFFFFFFFFFFFF AND PUSH20 0xFFFFFFFFFFFFFFFFFFFFFFFFFFFFFFFFFFFFFFFF AND DUP2 MSTORE PUSH1 0x20 ADD SWAP1 DUP2 MSTORE PUSH1 0x20 ADD PUSH0 KECCAK256 PUSH0 PUSH2 0x100 EXP DUP2 SLOAD DUP2 PUSH1 0xFF MUL NOT AND SWAP1 DUP4 ISZERO ISZERO MUL OR SWAP1 SSTORE POP DUP2 PUSH20 0xFFFFFFFFFFFFFFFFFFFFFFFFFFFFFFFFFFFFFFFF AND DUP4 PUSH20 0xFFFFFFFFFFFFFFFFFFFFFFFFFFFFFFFFFFFFFFFF AND PUSH32 0x17307EAB39AB6107E8899845AD3D59BD9653F200F220920489CA2B5937696C31 DUP4 PUSH1 0x40 MLOAD PUSH2 0x15E9 SWAP2 SWAP1 PUSH2 0x26A2 JUMP JUMPDEST PUSH1 0x40 MLOAD DUP1 SWAP2 SUB SWAP1 LOG3 POP POP POP JUMP JUMPDEST PUSH0 DUP4 PUSH20 0xFFFFFFFFFFFFFFFFFFFFFFFFFFFFFFFFFFFFFFFF AND EXTCODESIZE GT ISZERO PUSH2 0x179B JUMPI DUP3 PUSH20 0xFFFFFFFFFFFFFFFFFFFFFFFFFFFFFFFFFFFFFFFF AND PUSH4 0x150B7A02 DUP7 DUP7 DUP6 DUP6 PUSH1 0x40 MLOAD DUP6 PUSH4 0xFFFFFFFF AND PUSH1 0xE0 SHL DUP2 MSTORE PUSH1 0x4 ADD PUSH2 0x1654 SWAP5 SWAP4 SWAP3 SWAP2 SWAP1 PUSH2 0x3013 JUMP JUMPDEST PUSH1 0x20 PUSH1 0x40 MLOAD DUP1 DUP4 SUB DUP2 PUSH0 DUP8 GAS CALL SWAP3 POP POP POP DUP1 ISZERO PUSH2 0x168F JUMPI POP PUSH1 0x40 MLOAD RETURNDATASIZE PUSH1 0x1F NOT PUSH1 0x1F DUP3 ADD AND DUP3 ADD DUP1 PUSH1 0x40 MSTORE POP DUP2 ADD SWAP1 PUSH2 0x168C SWAP2 SWAP1 PUSH2 0x3071 JUMP JUMPDEST PUSH1 0x1 JUMPDEST PUSH2 0x1710 JUMPI RETURNDATASIZE DUP1 PUSH0 DUP2 EQ PUSH2 0x16BD JUMPI PUSH1 0x40 MLOAD SWAP2 POP PUSH1 0x1F NOT PUSH1 0x3F RETURNDATASIZE ADD AND DUP3 ADD PUSH1 0x40 MSTORE RETURNDATASIZE DUP3 MSTORE RETURNDATASIZE PUSH0 PUSH1 0x20 DUP5 ADD RETURNDATACOPY PUSH2 0x16C2 JUMP JUMPDEST PUSH1 0x60 SWAP2 POP JUMPDEST POP PUSH0 DUP2 MLOAD SUB PUSH2 0x1708 JUMPI DUP4 PUSH1 0x40 MLOAD PUSH32 0x64A0AE9200000000000000000000000000000000000000000000000000000000 DUP2 MSTORE PUSH1 0x4 ADD PUSH2 0x16FF SWAP2 SWAP1 PUSH2 0x27E8 JUMP JUMPDEST PUSH1 0x40 MLOAD DUP1 SWAP2 SUB SWAP1 REVERT JUMPDEST DUP1 MLOAD PUSH1 0x20 DUP3 ADD REVERT JUMPDEST PUSH4 0x150B7A02 PUSH1 0xE0 SHL PUSH28 0xFFFFFFFFFFFFFFFFFFFFFFFFFFFFFFFFFFFFFFFFFFFFFFFFFFFFFFFF NOT AND DUP2 PUSH28 0xFFFFFFFFFFFFFFFFFFFFFFFFFFFFFFFFFFFFFFFFFFFFFFFFFFFFFFFF NOT AND EQ PUSH2 0x1799 JUMPI DUP4 PUSH1 0x40 MLOAD PUSH32 0x64A0AE9200000000000000000000000000000000000000000000000000000000 DUP2 MSTORE PUSH1 0x4 ADD PUSH2 0x1790 SWAP2 SWAP1 PUSH2 0x27E8 JUMP JUMPDEST PUSH1 0x40 MLOAD DUP1 SWAP2 SUB SWAP1 REVERT JUMPDEST POP JUMPDEST POP POP POP POP POP JUMP JUMPDEST PUSH1 0x60 PUSH1 0x40 MLOAD DUP1 PUSH1 0x80 ADD PUSH1 0x40 MSTORE DUP1 PUSH1 0x43 DUP2 MSTORE PUSH1 0x20 ADD PUSH2 0x312A PUSH1 0x43 SWAP2 CODECOPY SWAP1 POP SWAP1 JUMP JUMPDEST PUSH1 0x60 PUSH0 PUSH1 0x1 PUSH2 0x17D0 DUP5 PUSH2 0x1C20 JUMP JUMPDEST ADD SWAP1 POP PUSH0 DUP2 PUSH8 0xFFFFFFFFFFFFFFFF DUP2 GT ISZERO PUSH2 0x17EE JUMPI PUSH2 0x17ED PUSH2 0x2A62 JUMP JUMPDEST JUMPDEST PUSH1 0x40 MLOAD SWAP1 DUP1 DUP3 MSTORE DUP1 PUSH1 0x1F ADD PUSH1 0x1F NOT AND PUSH1 0x20 ADD DUP3 ADD PUSH1 0x40 MSTORE DUP1 ISZERO PUSH2 0x1820 JUMPI DUP2 PUSH1 0x20 ADD PUSH1 0x1 DUP3 MUL DUP1 CALLDATASIZE DUP4 CALLDATACOPY DUP1 DUP3 ADD SWAP2 POP POP SWAP1 POP JUMPDEST POP SWAP1 POP PUSH0 DUP3 PUSH1 0x20 DUP4 ADD ADD SWAP1 POP JUMPDEST PUSH1 0x1 ISZERO PUSH2 0x1881 JUMPI DUP1 DUP1 PUSH1 0x1 SWAP1 SUB SWAP2 POP POP PUSH32 0x3031323334353637383961626364656600000000000000000000000000000000 PUSH1 0xA DUP7 MOD BYTE DUP2 MSTORE8 PUSH1 0xA DUP6 DUP2 PUSH2 0x1876 JUMPI PUSH2 0x1875 PUSH2 0x309C JUMP JUMPDEST JUMPDEST DIV SWAP5 POP PUSH0 DUP6 SUB PUSH2 0x182D JUMPI JUMPDEST DUP2 SWAP4 POP POP POP POP SWAP2 SWAP1 POP JUMP JUMPDEST PUSH0 PUSH32 0x80AC58CD00000000000000000000000000000000000000000000000000000000 PUSH28 0xFFFFFFFFFFFFFFFFFFFFFFFFFFFFFFFFFFFFFFFFFFFFFFFFFFFFFFFF NOT AND DUP3 PUSH28 0xFFFFFFFFFFFFFFFFFFFFFFFFFFFFFFFFFFFFFFFFFFFFFFFFFFFFFFFF NOT AND EQ DUP1 PUSH2 0x1956 JUMPI POP PUSH32 0x5B5E139F00000000000000000000000000000000000000000000000000000000 PUSH28 0xFFFFFFFFFFFFFFFFFFFFFFFFFFFFFFFFFFFFFFFFFFFFFFFFFFFFFFFF NOT AND DUP3 PUSH28 0xFFFFFFFFFFFFFFFFFFFFFFFFFFFFFFFFFFFFFFFFFFFFFFFFFFFFFFFF NOT AND EQ JUMPDEST DUP1 PUSH2 0x1966 JUMPI POP PUSH2 0x1965 DUP3 PUSH2 0x1D71 JUMP JUMPDEST JUMPDEST SWAP1 POP SWAP2 SWAP1 POP JUMP JUMPDEST PUSH0 PUSH1 0x2 PUSH0 DUP4 DUP2 MSTORE PUSH1 0x20 ADD SWAP1 DUP2 MSTORE PUSH1 0x20 ADD PUSH0 KECCAK256 PUSH0 SWAP1 SLOAD SWAP1 PUSH2 0x100 EXP SWAP1 DIV PUSH20 0xFFFFFFFFFFFFFFFFFFFFFFFFFFFFFFFFFFFFFFFF AND SWAP1 POP SWAP2 SWAP1 POP JUMP JUMPDEST DUP1 DUP1 PUSH2 0x19DE JUMPI POP PUSH0 PUSH20 0xFFFFFFFFFFFFFFFFFFFFFFFFFFFFFFFFFFFFFFFF AND DUP3 PUSH20 0xFFFFFFFFFFFFFFFFFFFFFFFFFFFFFFFFFFFFFFFF AND EQ ISZERO JUMPDEST ISZERO PUSH2 0x1B10 JUMPI PUSH0 PUSH2 0x19ED DUP5 PUSH2 0x1120 JUMP JUMPDEST SWAP1 POP PUSH0 PUSH20 0xFFFFFFFFFFFFFFFFFFFFFFFFFFFFFFFFFFFFFFFF AND DUP4 PUSH20 0xFFFFFFFFFFFFFFFFFFFFFFFFFFFFFFFFFFFFFFFF AND EQ ISZERO DUP1 ISZERO PUSH2 0x1A57 JUMPI POP DUP3 PUSH20 0xFFFFFFFFFFFFFFFFFFFFFFFFFFFFFFFFFFFFFFFF AND DUP2 PUSH20 0xFFFFFFFFFFFFFFFFFFFFFFFFFFFFFFFFFFFFFFFF AND EQ ISZERO JUMPDEST DUP1 ISZERO PUSH2 0x1A6A JUMPI POP PUSH2 0x1A68 DUP2 DUP5 PUSH2 0xF82 JUMP JUMPDEST ISZERO JUMPDEST ISZERO PUSH2 0x1AAC JUMPI DUP3 PUSH1 0x40 MLOAD PUSH32 0xA9FBF51F00000000000000000000000000000000000000000000000000000000 DUP2 MSTORE PUSH1 0x4 ADD PUSH2 0x1AA3 SWAP2 SWAP1 PUSH2 0x27E8 JUMP JUMPDEST PUSH1 0x40 MLOAD DUP1 SWAP2 SUB SWAP1 REVERT JUMPDEST DUP2 ISZERO PUSH2 0x1B0E JUMPI DUP4 DUP6 PUSH20 0xFFFFFFFFFFFFFFFFFFFFFFFFFFFFFFFFFFFFFFFF AND DUP3 PUSH20 0xFFFFFFFFFFFFFFFFFFFFFFFFFFFFFFFFFFFFFFFF AND PUSH32 0x8C5BE1E5EBEC7D5BD14F71427D1E84F3DD0314C0F7B2291E5B200AC8C7C3B925 PUSH1 0x40 MLOAD PUSH1 0x40 MLOAD DUP1 SWAP2 SUB SWAP1 LOG4 JUMPDEST POP JUMPDEST DUP4 PUSH1 0x4 PUSH0 DUP6 DUP2 MSTORE PUSH1 0x20 ADD SWAP1 DUP2 MSTORE PUSH1 0x20 ADD PUSH0 KECCAK256 PUSH0 PUSH2 0x100 EXP DUP2 SLOAD DUP2 PUSH20 0xFFFFFFFFFFFFFFFFFFFFFFFFFFFFFFFFFFFFFFFF MUL NOT AND SWAP1 DUP4 PUSH20 0xFFFFFFFFFFFFFFFFFFFFFFFFFFFFFFFFFFFFFFFF AND MUL OR SWAP1 SSTORE POP POP POP POP POP JUMP JUMPDEST PUSH2 0x1B7E DUP3 DUP3 PUSH1 0x40 MLOAD DUP1 PUSH1 0x20 ADD PUSH1 0x40 MSTORE DUP1 PUSH0 DUP2 MSTORE POP PUSH2 0x1DDA JUMP JUMPDEST POP POP JUMP JUMPDEST PUSH0 PUSH2 0x1B8B PUSH2 0x1BDF JUMP JUMPDEST PUSH2 0x1B96 DUP5 DUP5 DUP5 PUSH2 0x1DFD JUMP JUMPDEST SWAP1 POP SWAP4 SWAP3 POP POP POP JUMP JUMPDEST PUSH2 0x1BA7 PUSH2 0xC13 JUMP JUMPDEST PUSH2 0x1BDD JUMPI PUSH1 0x40 MLOAD PUSH32 0x8DFC202B00000000000000000000000000000000000000000000000000000000 DUP2 MSTORE PUSH1 0x4 ADD PUSH1 0x40 MLOAD DUP1 SWAP2 SUB SWAP1 REVERT JUMPDEST JUMP JUMPDEST PUSH2 0x1BE7 PUSH2 0xC13 JUMP JUMPDEST ISZERO PUSH2 0x1C1E JUMPI PUSH1 0x40 MLOAD PUSH32 0xD93C066500000000000000000000000000000000000000000000000000000000 DUP2 MSTORE PUSH1 0x4 ADD PUSH1 0x40 MLOAD DUP1 SWAP2 SUB SWAP1 REVERT JUMPDEST JUMP JUMPDEST PUSH0 PUSH0 PUSH0 SWAP1 POP PUSH27 0x184F03E93FF9F4DAA797ED6E38ED64BF6A1F010000000000000000 DUP4 LT PUSH2 0x1C7C JUMPI PUSH27 0x184F03E93FF9F4DAA797ED6E38ED64BF6A1F010000000000000000 DUP4 DUP2 PUSH2 0x1C72 JUMPI PUSH2 0x1C71 PUSH2 0x309C JUMP JUMPDEST JUMPDEST DIV SWAP3 POP PUSH1 0x40 DUP2 ADD SWAP1 POP JUMPDEST PUSH14 0x4EE2D6D415B85ACEF8100000000 DUP4 LT PUSH2 0x1CB9 JUMPI PUSH14 0x4EE2D6D415B85ACEF8100000000 DUP4 DUP2 PUSH2 0x1CAF JUMPI PUSH2 0x1CAE PUSH2 0x309C JUMP JUMPDEST JUMPDEST DIV SWAP3 POP PUSH1 0x20 DUP2 ADD SWAP1 POP JUMPDEST PUSH7 0x2386F26FC10000 DUP4 LT PUSH2 0x1CE8 JUMPI PUSH7 0x2386F26FC10000 DUP4 DUP2 PUSH2 0x1CDE JUMPI PUSH2 0x1CDD PUSH2 0x309C JUMP JUMPDEST JUMPDEST DIV SWAP3 POP PUSH1 0x10 DUP2 ADD SWAP1 POP JUMPDEST PUSH4 0x5F5E100 DUP4 LT PUSH2 0x1D11 JUMPI PUSH4 0x5F5E100 DUP4 DUP2 PUSH2 0x1D07 JUMPI PUSH2 0x1D06 PUSH2 0x309C JUMP JUMPDEST JUMPDEST DIV SWAP3 POP PUSH1 0x8 DUP2 ADD SWAP1 POP JUMPDEST PUSH2 0x2710 DUP4 LT PUSH2 0x1D36 JUMPI PUSH2 0x2710 DUP4 DUP2 PUSH2 0x1D2C JUMPI PUSH2 0x1D2B PUSH2 0x309C JUMP JUMPDEST JUMPDEST DIV SWAP3 POP PUSH1 0x4 DUP2 ADD SWAP1 POP JUMPDEST PUSH1 0x64 DUP4 LT PUSH2 0x1D59 JUMPI PUSH1 0x64 DUP4 DUP2 PUSH2 0x1D4F JUMPI PUSH2 0x1D4E PUSH2 0x309C JUMP JUMPDEST JUMPDEST DIV SWAP3 POP PUSH1 0x2 DUP2 ADD SWAP1 POP JUMPDEST PUSH1 0xA DUP4 LT PUSH2 0x1D68 JUMPI PUSH1 0x1 DUP2 ADD SWAP1 POP JUMPDEST DUP1 SWAP2 POP POP SWAP2 SWAP1 POP JUMP JUMPDEST PUSH0 PUSH32 0x1FFC9A700000000000000000000000000000000000000000000000000000000 PUSH28 0xFFFFFFFFFFFFFFFFFFFFFFFFFFFFFFFFFFFFFFFFFFFFFFFFFFFFFFFF NOT AND DUP3 PUSH28 0xFFFFFFFFFFFFFFFFFFFFFFFFFFFFFFFFFFFFFFFFFFFFFFFFFFFFFFFF NOT AND EQ SWAP1 POP SWAP2 SWAP1 POP JUMP JUMPDEST PUSH2 0x1DE4 DUP4 DUP4 PUSH2 0x1F17 JUMP JUMPDEST PUSH2 0x1DF8 PUSH2 0x1DEF PUSH2 0x11DF JUMP JUMPDEST PUSH0 DUP6 DUP6 DUP6 PUSH2 0x15F6 JUMP JUMPDEST POP POP POP JUMP JUMPDEST PUSH0 PUSH0 PUSH2 0x1E0A DUP6 DUP6 DUP6 PUSH2 0x200A JUMP JUMPDEST SWAP1 POP PUSH0 PUSH20 0xFFFFFFFFFFFFFFFFFFFFFFFFFFFFFFFFFFFFFFFF AND DUP2 PUSH20 0xFFFFFFFFFFFFFFFFFFFFFFFFFFFFFFFFFFFFFFFF AND SUB PUSH2 0x1E4D JUMPI PUSH2 0x1E48 DUP5 PUSH2 0x2215 JUMP JUMPDEST PUSH2 0x1E8C JUMP JUMPDEST DUP5 PUSH20 0xFFFFFFFFFFFFFFFFFFFFFFFFFFFFFFFFFFFFFFFF AND DUP2 PUSH20 0xFFFFFFFFFFFFFFFFFFFFFFFFFFFFFFFFFFFFFFFF AND EQ PUSH2 0x1E8B JUMPI PUSH2 0x1E8A DUP2 DUP6 PUSH2 0x2259 JUMP JUMPDEST JUMPDEST JUMPDEST PUSH0 PUSH20 0xFFFFFFFFFFFFFFFFFFFFFFFFFFFFFFFFFFFFFFFF AND DUP6 PUSH20 0xFFFFFFFFFFFFFFFFFFFFFFFFFFFFFFFFFFFFFFFF AND SUB PUSH2 0x1ECD JUMPI PUSH2 0x1EC8 DUP5 PUSH2 0x2330 JUMP JUMPDEST PUSH2 0x1F0C JUMP JUMPDEST DUP5 PUSH20 0xFFFFFFFFFFFFFFFFFFFFFFFFFFFFFFFFFFFFFFFF AND DUP2 PUSH20 0xFFFFFFFFFFFFFFFFFFFFFFFFFFFFFFFFFFFFFFFF AND EQ PUSH2 0x1F0B JUMPI PUSH2 0x1F0A DUP6 DUP6 PUSH2 0x23F0 JUMP JUMPDEST JUMPDEST JUMPDEST DUP1 SWAP2 POP POP SWAP4 SWAP3 POP POP POP JUMP JUMPDEST PUSH0 PUSH20 0xFFFFFFFFFFFFFFFFFFFFFFFFFFFFFFFFFFFFFFFF AND DUP3 PUSH20 0xFFFFFFFFFFFFFFFFFFFFFFFFFFFFFFFFFFFFFFFF AND SUB PUSH2 0x1F87 JUMPI PUSH0 PUSH1 0x40 MLOAD PUSH32 0x64A0AE9200000000000000000000000000000000000000000000000000000000 DUP2 MSTORE PUSH1 0x4 ADD PUSH2 0x1F7E SWAP2 SWAP1 PUSH2 0x27E8 JUMP JUMPDEST PUSH1 0x40 MLOAD DUP1 SWAP2 SUB SWAP1 REVERT JUMPDEST PUSH0 PUSH2 0x1F93 DUP4 DUP4 PUSH0 PUSH2 0x1269 JUMP JUMPDEST SWAP1 POP PUSH0 PUSH20 0xFFFFFFFFFFFFFFFFFFFFFFFFFFFFFFFFFFFFFFFF AND DUP2 PUSH20 0xFFFFFFFFFFFFFFFFFFFFFFFFFFFFFFFFFFFFFFFF AND EQ PUSH2 0x2005 JUMPI PUSH0 PUSH1 0x40 MLOAD PUSH32 0x73C6AC6E00000000000000000000000000000000000000000000000000000000 DUP2 MSTORE PUSH1 0x4 ADD PUSH2 0x1FFC SWAP2 SWAP1 PUSH2 0x27E8 JUMP JUMPDEST PUSH1 0x40 MLOAD DUP1 SWAP2 SUB SWAP1 REVERT JUMPDEST POP POP POP JUMP JUMPDEST PUSH0 PUSH0 PUSH2 0x2015 DUP5 PUSH2 0x196D JUMP JUMPDEST SWAP1 POP PUSH0 PUSH20 0xFFFFFFFFFFFFFFFFFFFFFFFFFFFFFFFFFFFFFFFF AND DUP4 PUSH20 0xFFFFFFFFFFFFFFFFFFFFFFFFFFFFFFFFFFFFFFFF AND EQ PUSH2 0x2056 JUMPI PUSH2 0x2055 DUP2 DUP5 DUP7 PUSH2 0x2474 JUMP JUMPDEST JUMPDEST PUSH0 PUSH20 0xFFFFFFFFFFFFFFFFFFFFFFFFFFFFFFFFFFFFFFFF AND DUP2 PUSH20 0xFFFFFFFFFFFFFFFFFFFFFFFFFFFFFFFFFFFFFFFF AND EQ PUSH2 0x20E1 JUMPI PUSH2 0x2095 PUSH0 DUP6 PUSH0 PUSH0 PUSH2 0x19A6 JUMP JUMPDEST PUSH1 0x1 PUSH1 0x3 PUSH0 DUP4 PUSH20 0xFFFFFFFFFFFFFFFFFFFFFFFFFFFFFFFFFFFFFFFF AND PUSH20 0xFFFFFFFFFFFFFFFFFFFFFFFFFFFFFFFFFFFFFFFF AND DUP2 MSTORE PUSH1 0x20 ADD SWAP1 DUP2 MSTORE PUSH1 0x20 ADD PUSH0 KECCAK256 PUSH0 DUP3 DUP3 SLOAD SUB SWAP3 POP POP DUP2 SWAP1 SSTORE POP JUMPDEST PUSH0 PUSH20 0xFFFFFFFFFFFFFFFFFFFFFFFFFFFFFFFFFFFFFFFF AND DUP6 PUSH20 0xFFFFFFFFFFFFFFFFFFFFFFFFFFFFFFFFFFFFFFFF AND EQ PUSH2 0x2160 JUMPI PUSH1 0x1 PUSH1 0x3 PUSH0 DUP8 PUSH20 0xFFFFFFFFFFFFFFFFFFFFFFFFFFFFFFFFFFFFFFFF AND PUSH20 0xFFFFFFFFFFFFFFFFFFFFFFFFFFFFFFFFFFFFFFFF AND DUP2 MSTORE PUSH1 0x20 ADD SWAP1 DUP2 MSTORE PUSH1 0x20 ADD PUSH0 KECCAK256 PUSH0 DUP3 DUP3 SLOAD ADD SWAP3 POP POP DUP2 SWAP1 SSTORE POP JUMPDEST DUP5 PUSH1 0x2 PUSH0 DUP7 DUP2 MSTORE PUSH1 0x20 ADD SWAP1 DUP2 MSTORE PUSH1 0x20 ADD PUSH0 KECCAK256 PUSH0 PUSH2 0x100 EXP DUP2 SLOAD DUP2 PUSH20 0xFFFFFFFFFFFFFFFFFFFFFFFFFFFFFFFFFFFFFFFF MUL NOT AND SWAP1 DUP4 PUSH20 0xFFFFFFFFFFFFFFFFFFFFFFFFFFFFFFFFFFFFFFFF AND MUL OR SWAP1 SSTORE POP DUP4 DUP6 PUSH20 0xFFFFFFFFFFFFFFFFFFFFFFFFFFFFFFFFFFFFFFFF AND DUP3 PUSH20 0xFFFFFFFFFFFFFFFFFFFFFFFFFFFFFFFFFFFFFFFF AND PUSH32 0xDDF252AD1BE2C89B69C2B068FC378DAA952BA7F163C4A11628F55A4DF523B3EF PUSH1 0x40 MLOAD PUSH1 0x40 MLOAD DUP1 SWAP2 SUB SWAP1 LOG4 DUP1 SWAP2 POP POP SWAP4 SWAP3 POP POP POP JUMP JUMPDEST PUSH1 0x8 DUP1 SLOAD SWAP1 POP PUSH1 0x9 PUSH0 DUP4 DUP2 MSTORE PUSH1 0x20 ADD SWAP1 DUP2 MSTORE PUSH1 0x20 ADD PUSH0 KECCAK256 DUP2 SWAP1 SSTORE POP PUSH1 0x8 DUP2 SWAP1 DUP1 PUSH1 0x1 DUP2 SLOAD ADD DUP1 DUP3 SSTORE DUP1 SWAP2 POP POP PUSH1 0x1 SWAP1 SUB SWAP1 PUSH0 MSTORE PUSH1 0x20 PUSH0 KECCAK256 ADD PUSH0 SWAP1 SWAP2 SWAP1 SWAP2 SWAP1 SWAP2 POP SSTORE POP JUMP JUMPDEST PUSH0 PUSH2 0x2263 DUP4 PUSH2 0xCDF JUMP JUMPDEST SWAP1 POP PUSH0 PUSH1 0x7 PUSH0 DUP5 DUP2 MSTORE PUSH1 0x20 ADD SWAP1 DUP2 MSTORE PUSH1 0x20 ADD PUSH0 KECCAK256 SLOAD SWAP1 POP PUSH0 PUSH1 0x6 PUSH0 DUP7 PUSH20 0xFFFFFFFFFFFFFFFFFFFFFFFFFFFFFFFFFFFFFFFF AND PUSH20 0xFFFFFFFFFFFFFFFFFFFFFFFFFFFFFFFFFFFFFFFF AND DUP2 MSTORE PUSH1 0x20 ADD SWAP1 DUP2 MSTORE PUSH1 0x20 ADD PUSH0 KECCAK256 SWAP1 POP DUP3 DUP3 EQ PUSH2 0x2302 JUMPI PUSH0 DUP2 PUSH0 DUP6 DUP2 MSTORE PUSH1 0x20 ADD SWAP1 DUP2 MSTORE PUSH1 0x20 ADD PUSH0 KECCAK256 SLOAD SWAP1 POP DUP1 DUP3 PUSH0 DUP6 DUP2 MSTORE PUSH1 0x20 ADD SWAP1 DUP2 MSTORE PUSH1 0x20 ADD PUSH0 KECCAK256 DUP2 SWAP1 SSTORE POP DUP3 PUSH1 0x7 PUSH0 DUP4 DUP2 MSTORE PUSH1 0x20 ADD SWAP1 DUP2 MSTORE PUSH1 0x20 ADD PUSH0 KECCAK256 DUP2 SWAP1 SSTORE POP POP JUMPDEST PUSH1 0x7 PUSH0 DUP6 DUP2 MSTORE PUSH1 0x20 ADD SWAP1 DUP2 MSTORE PUSH1 0x20 ADD PUSH0 KECCAK256 PUSH0 SWAP1 SSTORE DUP1 PUSH0 DUP5 DUP2 MSTORE PUSH1 0x20 ADD SWAP1 DUP2 MSTORE PUSH1 0x20 ADD PUSH0 KECCAK256 PUSH0 SWAP1 SSTORE POP POP POP POP POP JUMP JUMPDEST PUSH0 PUSH1 0x1 PUSH1 0x8 DUP1 SLOAD SWAP1 POP PUSH2 0x2343 SWAP2 SWAP1 PUSH2 0x30C9 JUMP JUMPDEST SWAP1 POP PUSH0 PUSH1 0x9 PUSH0 DUP5 DUP2 MSTORE PUSH1 0x20 ADD SWAP1 DUP2 MSTORE PUSH1 0x20 ADD PUSH0 KECCAK256 SLOAD SWAP1 POP PUSH0 PUSH1 0x8 DUP4 DUP2 SLOAD DUP2 LT PUSH2 0x236F JUMPI PUSH2 0x236E PUSH2 0x2E5B JUMP JUMPDEST JUMPDEST SWAP1 PUSH0 MSTORE PUSH1 0x20 PUSH0 KECCAK256 ADD SLOAD SWAP1 POP DUP1 PUSH1 0x8 DUP4 DUP2 SLOAD DUP2 LT PUSH2 0x238F JUMPI PUSH2 0x238E PUSH2 0x2E5B JUMP JUMPDEST JUMPDEST SWAP1 PUSH0 MSTORE PUSH1 0x20 PUSH0 KECCAK256 ADD DUP2 SWAP1 SSTORE POP DUP2 PUSH1 0x9 PUSH0 DUP4 DUP2 MSTORE PUSH1 0x20 ADD SWAP1 DUP2 MSTORE PUSH1 0x20 ADD PUSH0 KECCAK256 DUP2 SWAP1 SSTORE POP PUSH1 0x9 PUSH0 DUP6 DUP2 MSTORE PUSH1 0x20 ADD SWAP1 DUP2 MSTORE PUSH1 0x20 ADD PUSH0 KECCAK256 PUSH0 SWAP1 SSTORE PUSH1 0x8 DUP1 SLOAD DUP1 PUSH2 0x23D7 JUMPI PUSH2 0x23D6 PUSH2 0x30FC JUMP JUMPDEST JUMPDEST PUSH1 0x1 SWAP1 SUB DUP2 DUP2 SWAP1 PUSH0 MSTORE PUSH1 0x20 PUSH0 KECCAK256 ADD PUSH0 SWAP1 SSTORE SWAP1 SSTORE POP POP POP POP JUMP JUMPDEST PUSH0 PUSH1 0x1 PUSH2 0x23FC DUP5 PUSH2 0xCDF JUMP JUMPDEST PUSH2 0x2406 SWAP2 SWAP1 PUSH2 0x30C9 JUMP JUMPDEST SWAP1 POP DUP2 PUSH1 0x6 PUSH0 DUP6 PUSH20 0xFFFFFFFFFFFFFFFFFFFFFFFFFFFFFFFFFFFFFFFF AND PUSH20 0xFFFFFFFFFFFFFFFFFFFFFFFFFFFFFFFFFFFFFFFF AND DUP2 MSTORE PUSH1 0x20 ADD SWAP1 DUP2 MSTORE PUSH1 0x20 ADD PUSH0 KECCAK256 PUSH0 DUP4 DUP2 MSTORE PUSH1 0x20 ADD SWAP1 DUP2 MSTORE PUSH1 0x20 ADD PUSH0 KECCAK256 DUP2 SWAP1 SSTORE POP DUP1 PUSH1 0x7 PUSH0 DUP5 DUP2 MSTORE PUSH1 0x20 ADD SWAP1 DUP2 MSTORE PUSH1 0x20 ADD PUSH0 KECCAK256 DUP2 SWAP1 SSTORE POP POP POP POP JUMP JUMPDEST PUSH2 0x247F DUP4 DUP4 DUP4 PUSH2 0x2537 JUMP JUMPDEST PUSH2 0x2532 JUMPI PUSH0 PUSH20 0xFFFFFFFFFFFFFFFFFFFFFFFFFFFFFFFFFFFFFFFF AND DUP4 PUSH20 0xFFFFFFFFFFFFFFFFFFFFFFFFFFFFFFFFFFFFFFFF AND SUB PUSH2 0x24F3 JUMPI DUP1 PUSH1 0x40 MLOAD PUSH32 0x7E27328900000000000000000000000000000000000000000000000000000000 DUP2 MSTORE PUSH1 0x4 ADD PUSH2 0x24EA SWAP2 SWAP1 PUSH2 0x2878 JUMP JUMPDEST PUSH1 0x40 MLOAD DUP1 SWAP2 SUB SWAP1 REVERT JUMPDEST DUP2 DUP2 PUSH1 0x40 MLOAD PUSH32 0x177E802F00000000000000000000000000000000000000000000000000000000 DUP2 MSTORE PUSH1 0x4 ADD PUSH2 0x2529 SWAP3 SWAP2 SWAP1 PUSH2 0x2E34 JUMP JUMPDEST PUSH1 0x40 MLOAD DUP1 SWAP2 SUB SWAP1 REVERT JUMPDEST POP POP POP JUMP JUMPDEST PUSH0 PUSH0 PUSH20 0xFFFFFFFFFFFFFFFFFFFFFFFFFFFFFFFFFFFFFFFF AND DUP4 PUSH20 0xFFFFFFFFFFFFFFFFFFFFFFFFFFFFFFFFFFFFFFFF AND EQ ISZERO DUP1 ISZERO PUSH2 0x25EE JUMPI POP DUP3 PUSH20 0xFFFFFFFFFFFFFFFFFFFFFFFFFFFFFFFFFFFFFFFF AND DUP5 PUSH20 0xFFFFFFFFFFFFFFFFFFFFFFFFFFFFFFFFFFFFFFFF AND EQ DUP1 PUSH2 0x25AF JUMPI POP PUSH2 0x25AE DUP5 DUP5 PUSH2 0xF82 JUMP JUMPDEST JUMPDEST DUP1 PUSH2 0x25ED JUMPI POP DUP3 PUSH20 0xFFFFFFFFFFFFFFFFFFFFFFFFFFFFFFFFFFFFFFFF AND PUSH2 0x25D5 DUP4 PUSH2 0x11A6 JUMP JUMPDEST PUSH20 0xFFFFFFFFFFFFFFFFFFFFFFFFFFFFFFFFFFFFFFFF AND EQ JUMPDEST JUMPDEST SWAP1 POP SWAP4 SWAP3 POP POP POP JUMP JUMPDEST PUSH0 PUSH1 0x40 MLOAD SWAP1 POP SWAP1 JUMP JUMPDEST PUSH0 PUSH0 REVERT JUMPDEST PUSH0 PUSH0 REVERT JUMPDEST PUSH0 PUSH32 0xFFFFFFFF00000000000000000000000000000000000000000000000000000000 DUP3 AND SWAP1 POP SWAP2 SWAP1 POP JUMP JUMPDEST PUSH2 0x263C DUP2 PUSH2 0x2608 JUMP JUMPDEST DUP2 EQ PUSH2 0x2646 JUMPI PUSH0 PUSH0 REVERT JUMPDEST POP JUMP JUMPDEST PUSH0 DUP2 CALLDATALOAD SWAP1 POP PUSH2 0x2657 DUP2 PUSH2 0x2633 JUMP JUMPDEST SWAP3 SWAP2 POP POP JUMP JUMPDEST PUSH0 PUSH1 0x20 DUP3 DUP5 SUB SLT ISZERO PUSH2 0x2672 JUMPI PUSH2 0x2671 PUSH2 0x2600 JUMP JUMPDEST JUMPDEST PUSH0 PUSH2 0x267F DUP5 DUP3 DUP6 ADD PUSH2 0x2649 JUMP JUMPDEST SWAP2 POP POP SWAP3 SWAP2 POP POP JUMP JUMPDEST PUSH0 DUP2 ISZERO ISZERO SWAP1 POP SWAP2 SWAP1 POP JUMP JUMPDEST PUSH2 0x269C DUP2 PUSH2 0x2688 JUMP JUMPDEST DUP3 MSTORE POP POP JUMP JUMPDEST PUSH0 PUSH1 0x20 DUP3 ADD SWAP1 POP PUSH2 0x26B5 PUSH0 DUP4 ADD DUP5 PUSH2 0x2693 JUMP JUMPDEST SWAP3 SWAP2 POP POP JUMP JUMPDEST PUSH0 DUP2 MLOAD SWAP1 POP SWAP2 SWAP1 POP JUMP JUMPDEST PUSH0 DUP3 DUP3 MSTORE PUSH1 0x20 DUP3 ADD SWAP1 POP SWAP3 SWAP2 POP POP JUMP JUMPDEST DUP3 DUP2 DUP4 MCOPY PUSH0 DUP4 DUP4 ADD MSTORE POP POP POP JUMP JUMPDEST PUSH0 PUSH1 0x1F NOT PUSH1 0x1F DUP4 ADD AND SWAP1 POP SWAP2 SWAP1 POP JUMP JUMPDEST PUSH0 PUSH2 0x26FD DUP3 PUSH2 0x26BB JUMP JUMPDEST PUSH2 0x2707 DUP2 DUP6 PUSH2 0x26C5 JUMP JUMPDEST SWAP4 POP PUSH2 0x2717 DUP2 DUP6 PUSH1 0x20 DUP7 ADD PUSH2 0x26D5 JUMP JUMPDEST PUSH2 0x2720 DUP2 PUSH2 0x26E3 JUMP JUMPDEST DUP5 ADD SWAP2 POP POP SWAP3 SWAP2 POP POP JUMP JUMPDEST PUSH0 PUSH1 0x20 DUP3 ADD SWAP1 POP DUP2 DUP2 SUB PUSH0 DUP4 ADD MSTORE PUSH2 0x2743 DUP2 DUP5 PUSH2 0x26F3 JUMP JUMPDEST SWAP1 POP SWAP3 SWAP2 POP POP JUMP JUMPDEST PUSH0 DUP2 SWAP1 POP SWAP2 SWAP1 POP JUMP JUMPDEST PUSH2 0x275D DUP2 PUSH2 0x274B JUMP JUMPDEST DUP2 EQ PUSH2 0x2767 JUMPI PUSH0 PUSH0 REVERT JUMPDEST POP JUMP JUMPDEST PUSH0 DUP2 CALLDATALOAD SWAP1 POP PUSH2 0x2778 DUP2 PUSH2 0x2754 JUMP JUMPDEST SWAP3 SWAP2 POP POP JUMP JUMPDEST PUSH0 PUSH1 0x20 DUP3 DUP5 SUB SLT ISZERO PUSH2 0x2793 JUMPI PUSH2 0x2792 PUSH2 0x2600 JUMP JUMPDEST JUMPDEST PUSH0 PUSH2 0x27A0 DUP5 DUP3 DUP6 ADD PUSH2 0x276A JUMP JUMPDEST SWAP2 POP POP SWAP3 SWAP2 POP POP JUMP JUMPDEST PUSH0 PUSH20 0xFFFFFFFFFFFFFFFFFFFFFFFFFFFFFFFFFFFFFFFF DUP3 AND SWAP1 POP SWAP2 SWAP1 POP JUMP JUMPDEST PUSH0 PUSH2 0x27D2 DUP3 PUSH2 0x27A9 JUMP JUMPDEST SWAP1 POP SWAP2 SWAP1 POP JUMP JUMPDEST PUSH2 0x27E2 DUP2 PUSH2 0x27C8 JUMP JUMPDEST DUP3 MSTORE POP POP JUMP JUMPDEST PUSH0 PUSH1 0x20 DUP3 ADD SWAP1 POP PUSH2 0x27FB PUSH0 DUP4 ADD DUP5 PUSH2 0x27D9 JUMP JUMPDEST SWAP3 SWAP2 POP POP JUMP JUMPDEST PUSH2 0x280A DUP2 PUSH2 0x27C8 JUMP JUMPDEST DUP2 EQ PUSH2 0x2814 JUMPI PUSH0 PUSH0 REVERT JUMPDEST POP JUMP JUMPDEST PUSH0 DUP2 CALLDATALOAD SWAP1 POP PUSH2 0x2825 DUP2 PUSH2 0x2801 JUMP JUMPDEST SWAP3 SWAP2 POP POP JUMP JUMPDEST PUSH0 PUSH0 PUSH1 0x40 DUP4 DUP6 SUB SLT ISZERO PUSH2 0x2841 JUMPI PUSH2 0x2840 PUSH2 0x2600 JUMP JUMPDEST JUMPDEST PUSH0 PUSH2 0x284E DUP6 DUP3 DUP7 ADD PUSH2 0x2817 JUMP JUMPDEST SWAP3 POP POP PUSH1 0x20 PUSH2 0x285F DUP6 DUP3 DUP7 ADD PUSH2 0x276A JUMP JUMPDEST SWAP2 POP POP SWAP3 POP SWAP3 SWAP1 POP JUMP JUMPDEST PUSH2 0x2872 DUP2 PUSH2 0x274B JUMP JUMPDEST DUP3 MSTORE POP POP JUMP JUMPDEST PUSH0 PUSH1 0x20 DUP3 ADD SWAP1 POP PUSH2 0x288B PUSH0 DUP4 ADD DUP5 PUSH2 0x2869 JUMP JUMPDEST SWAP3 SWAP2 POP POP JUMP JUMPDEST PUSH0 PUSH0 PUSH0 PUSH1 0x60 DUP5 DUP7 SUB SLT ISZERO PUSH2 0x28A8 JUMPI PUSH2 0x28A7 PUSH2 0x2600 JUMP JUMPDEST JUMPDEST PUSH0 PUSH2 0x28B5 DUP7 DUP3 DUP8 ADD PUSH2 0x2817 JUMP JUMPDEST SWAP4 POP POP PUSH1 0x20 PUSH2 0x28C6 DUP7 DUP3 DUP8 ADD PUSH2 0x2817 JUMP JUMPDEST SWAP3 POP POP PUSH1 0x40 PUSH2 0x28D7 DUP7 DUP3 DUP8 ADD PUSH2 0x276A JUMP JUMPDEST SWAP2 POP POP SWAP3 POP SWAP3 POP SWAP3 JUMP JUMPDEST PUSH0 PUSH1 0x20 DUP3 DUP5 SUB SLT ISZERO PUSH2 0x28F6 JUMPI PUSH2 0x28F5 PUSH2 0x2600 JUMP JUMPDEST JUMPDEST PUSH0 PUSH2 0x2903 DUP5 DUP3 DUP6 ADD PUSH2 0x2817 JUMP JUMPDEST SWAP2 POP POP SWAP3 SWAP2 POP POP JUMP JUMPDEST PUSH0 PUSH0 REVERT JUMPDEST PUSH0 PUSH0 REVERT JUMPDEST PUSH0 PUSH0 REVERT JUMPDEST PUSH0 PUSH0 DUP4 PUSH1 0x1F DUP5 ADD SLT PUSH2 0x292D JUMPI PUSH2 0x292C PUSH2 0x290C JUMP JUMPDEST JUMPDEST DUP3 CALLDATALOAD SWAP1 POP PUSH8 0xFFFFFFFFFFFFFFFF DUP2 GT ISZERO PUSH2 0x294A JUMPI PUSH2 0x2949 PUSH2 0x2910 JUMP JUMPDEST JUMPDEST PUSH1 0x20 DUP4 ADD SWAP2 POP DUP4 PUSH1 0x20 DUP3 MUL DUP4 ADD GT ISZERO PUSH2 0x2966 JUMPI PUSH2 0x2965 PUSH2 0x2914 JUMP JUMPDEST JUMPDEST SWAP3 POP SWAP3 SWAP1 POP JUMP JUMPDEST PUSH0 PUSH0 PUSH1 0x20 DUP4 DUP6 SUB SLT ISZERO PUSH2 0x2983 JUMPI PUSH2 0x2982 PUSH2 0x2600 JUMP JUMPDEST JUMPDEST PUSH0 DUP4 ADD CALLDATALOAD PUSH8 0xFFFFFFFFFFFFFFFF DUP2 GT ISZERO PUSH2 0x29A0 JUMPI PUSH2 0x299F PUSH2 0x2604 JUMP JUMPDEST JUMPDEST PUSH2 0x29AC DUP6 DUP3 DUP7 ADD PUSH2 0x2918 JUMP JUMPDEST SWAP3 POP SWAP3 POP POP SWAP3 POP SWAP3 SWAP1 POP JUMP JUMPDEST PUSH2 0x29C1 DUP2 PUSH2 0x2688 JUMP JUMPDEST DUP2 EQ PUSH2 0x29CB JUMPI PUSH0 PUSH0 REVERT JUMPDEST POP JUMP JUMPDEST PUSH0 DUP2 CALLDATALOAD SWAP1 POP PUSH2 0x29DC DUP2 PUSH2 0x29B8 JUMP JUMPDEST SWAP3 SWAP2 POP POP JUMP JUMPDEST PUSH0 PUSH0 PUSH1 0x40 DUP4 DUP6 SUB SLT ISZERO PUSH2 0x29F8 JUMPI PUSH2 0x29F7 PUSH2 0x2600 JUMP JUMPDEST JUMPDEST PUSH0 PUSH2 0x2A05 DUP6 DUP3 DUP7 ADD PUSH2 0x29CE JUMP JUMPDEST SWAP3 POP POP PUSH1 0x20 PUSH2 0x2A16 DUP6 DUP3 DUP7 ADD PUSH2 0x29CE JUMP JUMPDEST SWAP2 POP POP SWAP3 POP SWAP3 SWAP1 POP JUMP JUMPDEST PUSH0 PUSH0 PUSH1 0x40 DUP4 DUP6 SUB SLT ISZERO PUSH2 0x2A36 JUMPI PUSH2 0x2A35 PUSH2 0x2600 JUMP JUMPDEST JUMPDEST PUSH0 PUSH2 0x2A43 DUP6 DUP3 DUP7 ADD PUSH2 0x2817 JUMP JUMPDEST SWAP3 POP POP PUSH1 0x20 PUSH2 0x2A54 DUP6 DUP3 DUP7 ADD PUSH2 0x29CE JUMP JUMPDEST SWAP2 POP POP SWAP3 POP SWAP3 SWAP1 POP JUMP JUMPDEST PUSH0 PUSH0 REVERT JUMPDEST PUSH32 0x4E487B7100000000000000000000000000000000000000000000000000000000 PUSH0 MSTORE PUSH1 0x41 PUSH1 0x4 MSTORE PUSH1 0x24 PUSH0 REVERT JUMPDEST PUSH2 0x2A98 DUP3 PUSH2 0x26E3 JUMP JUMPDEST DUP2 ADD DUP2 DUP2 LT PUSH8 0xFFFFFFFFFFFFFFFF DUP3 GT OR ISZERO PUSH2 0x2AB7 JUMPI PUSH2 0x2AB6 PUSH2 0x2A62 JUMP JUMPDEST JUMPDEST DUP1 PUSH1 0x40 MSTORE POP POP POP JUMP JUMPDEST PUSH0 PUSH2 0x2AC9 PUSH2 0x25F7 JUMP JUMPDEST SWAP1 POP PUSH2 0x2AD5 DUP3 DUP3 PUSH2 0x2A8F JUMP JUMPDEST SWAP2 SWAP1 POP JUMP JUMPDEST PUSH0 PUSH8 0xFFFFFFFFFFFFFFFF DUP3 GT ISZERO PUSH2 0x2AF4 JUMPI PUSH2 0x2AF3 PUSH2 0x2A62 JUMP JUMPDEST JUMPDEST PUSH2 0x2AFD DUP3 PUSH2 0x26E3 JUMP JUMPDEST SWAP1 POP PUSH1 0x20 DUP2 ADD SWAP1 POP SWAP2 SWAP1 POP JUMP JUMPDEST DUP3 DUP2 DUP4 CALLDATACOPY PUSH0 DUP4 DUP4 ADD MSTORE POP POP POP JUMP JUMPDEST PUSH0 PUSH2 0x2B2A PUSH2 0x2B25 DUP5 PUSH2 0x2ADA JUMP JUMPDEST PUSH2 0x2AC0 JUMP JUMPDEST SWAP1 POP DUP3 DUP2 MSTORE PUSH1 0x20 DUP2 ADD DUP5 DUP5 DUP5 ADD GT ISZERO PUSH2 0x2B46 JUMPI PUSH2 0x2B45 PUSH2 0x2A5E JUMP JUMPDEST JUMPDEST PUSH2 0x2B51 DUP5 DUP3 DUP6 PUSH2 0x2B0A JUMP JUMPDEST POP SWAP4 SWAP3 POP POP POP JUMP JUMPDEST PUSH0 DUP3 PUSH1 0x1F DUP4 ADD SLT PUSH2 0x2B6D JUMPI PUSH2 0x2B6C PUSH2 0x290C JUMP JUMPDEST JUMPDEST DUP2 CALLDATALOAD PUSH2 0x2B7D DUP5 DUP3 PUSH1 0x20 DUP7 ADD PUSH2 0x2B18 JUMP JUMPDEST SWAP2 POP POP SWAP3 SWAP2 POP POP JUMP JUMPDEST PUSH0 PUSH0 PUSH0 PUSH0 PUSH1 0x80 DUP6 DUP8 SUB SLT ISZERO PUSH2 0x2B9E JUMPI PUSH2 0x2B9D PUSH2 0x2600 JUMP JUMPDEST JUMPDEST PUSH0 PUSH2 0x2BAB DUP8 DUP3 DUP9 ADD PUSH2 0x2817 JUMP JUMPDEST SWAP5 POP POP PUSH1 0x20 PUSH2 0x2BBC DUP8 DUP3 DUP9 ADD PUSH2 0x2817 JUMP JUMPDEST SWAP4 POP POP PUSH1 0x40 PUSH2 0x2BCD DUP8 DUP3 DUP9 ADD PUSH2 0x276A JUMP JUMPDEST SWAP3 POP POP PUSH1 0x60 DUP6 ADD CALLDATALOAD PUSH8 0xFFFFFFFFFFFFFFFF DUP2 GT ISZERO PUSH2 0x2BEE JUMPI PUSH2 0x2BED PUSH2 0x2604 JUMP JUMPDEST JUMPDEST PUSH2 0x2BFA DUP8 DUP3 DUP9 ADD PUSH2 0x2B59 JUMP JUMPDEST SWAP2 POP POP SWAP3 SWAP6 SWAP2 SWAP5 POP SWAP3 POP JUMP JUMPDEST PUSH0 PUSH0 PUSH1 0x40 DUP4 DUP6 SUB SLT ISZERO PUSH2 0x2C1C JUMPI PUSH2 0x2C1B PUSH2 0x2600 JUMP JUMPDEST JUMPDEST PUSH0 PUSH2 0x2C29 DUP6 DUP3 DUP7 ADD PUSH2 0x2817 JUMP JUMPDEST SWAP3 POP POP PUSH1 0x20 PUSH2 0x2C3A DUP6 DUP3 DUP7 ADD PUSH2 0x2817 JUMP JUMPDEST SWAP2 POP POP SWAP3 POP SWAP3 SWAP1 POP JUMP JUMPDEST PUSH32 0x4E487B7100000000000000000000000000000000000000000000000000000000 PUSH0 MSTORE PUSH1 0x22 PUSH1 0x4 MSTORE PUSH1 0x24 PUSH0 REVERT JUMPDEST PUSH0 PUSH1 0x2 DUP3 DIV SWAP1 POP PUSH1 0x1 DUP3 AND DUP1 PUSH2 0x2C88 JUMPI PUSH1 0x7F DUP3 AND SWAP2 POP JUMPDEST PUSH1 0x20 DUP3 LT DUP2 SUB PUSH2 0x2C9B JUMPI PUSH2 0x2C9A PUSH2 0x2C44 JUMP JUMPDEST JUMPDEST POP SWAP2 SWAP1 POP JUMP JUMPDEST PUSH32 0x536F7272792074686973206D696E74206973206E6F74206176696C6162652066 PUSH0 DUP3 ADD MSTORE PUSH32 0x6F72206E6F770000000000000000000000000000000000000000000000000000 PUSH1 0x20 DUP3 ADD MSTORE POP JUMP JUMPDEST PUSH0 PUSH2 0x2CFB PUSH1 0x26 DUP4 PUSH2 0x26C5 JUMP JUMPDEST SWAP2 POP PUSH2 0x2D06 DUP3 PUSH2 0x2CA1 JUMP JUMPDEST PUSH1 0x40 DUP3 ADD SWAP1 POP SWAP2 SWAP1 POP JUMP JUMPDEST PUSH0 PUSH1 0x20 DUP3 ADD SWAP1 POP DUP2 DUP2 SUB PUSH0 DUP4 ADD MSTORE PUSH2 0x2D28 DUP2 PUSH2 0x2CEF JUMP JUMPDEST SWAP1 POP SWAP2 SWAP1 POP JUMP JUMPDEST PUSH32 0x596F757220617265206E6F7420616C6C6F776564207573657200000000000000 PUSH0 DUP3 ADD MSTORE POP JUMP JUMPDEST PUSH0 PUSH2 0x2D63 PUSH1 0x19 DUP4 PUSH2 0x26C5 JUMP JUMPDEST SWAP2 POP PUSH2 0x2D6E DUP3 PUSH2 0x2D2F JUMP JUMPDEST PUSH1 0x20 DUP3 ADD SWAP1 POP SWAP2 SWAP1 POP JUMP JUMPDEST PUSH0 PUSH1 0x20 DUP3 ADD SWAP1 POP DUP2 DUP2 SUB PUSH0 DUP4 ADD MSTORE PUSH2 0x2D90 DUP2 PUSH2 0x2D57 JUMP JUMPDEST SWAP1 POP SWAP2 SWAP1 POP JUMP JUMPDEST PUSH32 0x496E737566666369656E742062616C616E636500000000000000000000000000 PUSH0 DUP3 ADD MSTORE POP JUMP JUMPDEST PUSH0 PUSH2 0x2DCB PUSH1 0x13 DUP4 PUSH2 0x26C5 JUMP JUMPDEST SWAP2 POP PUSH2 0x2DD6 DUP3 PUSH2 0x2D97 JUMP JUMPDEST PUSH1 0x20 DUP3 ADD SWAP1 POP SWAP2 SWAP1 POP JUMP JUMPDEST PUSH0 PUSH1 0x20 DUP3 ADD SWAP1 POP DUP2 DUP2 SUB PUSH0 DUP4 ADD MSTORE PUSH2 0x2DF8 DUP2 PUSH2 0x2DBF JUMP JUMPDEST SWAP1 POP SWAP2 SWAP1 POP JUMP JUMPDEST PUSH0 PUSH1 0x60 DUP3 ADD SWAP1 POP PUSH2 0x2E12 PUSH0 DUP4 ADD DUP7 PUSH2 0x27D9 JUMP JUMPDEST PUSH2 0x2E1F PUSH1 0x20 DUP4 ADD DUP6 PUSH2 0x2869 JUMP JUMPDEST PUSH2 0x2E2C PUSH1 0x40 DUP4 ADD DUP5 PUSH2 0x27D9 JUMP JUMPDEST SWAP5 SWAP4 POP POP POP POP JUMP JUMPDEST PUSH0 PUSH1 0x40 DUP3 ADD SWAP1 POP PUSH2 0x2E47 PUSH0 DUP4 ADD DUP6 PUSH2 0x27D9 JUMP JUMPDEST PUSH2 0x2E54 PUSH1 0x20 DUP4 ADD DUP5 PUSH2 0x2869 JUMP JUMPDEST SWAP4 SWAP3 POP POP POP JUMP JUMPDEST PUSH32 0x4E487B7100000000000000000000000000000000000000000000000000000000 PUSH0 MSTORE PUSH1 0x32 PUSH1 0x4 MSTORE PUSH1 0x24 PUSH0 REVERT JUMPDEST PUSH0 DUP2 SWAP1 POP SWAP3 SWAP2 POP POP JUMP JUMPDEST PUSH0 PUSH2 0x2E9C DUP3 PUSH2 0x26BB JUMP JUMPDEST PUSH2 0x2EA6 DUP2 DUP6 PUSH2 0x2E88 JUMP JUMPDEST SWAP4 POP PUSH2 0x2EB6 DUP2 DUP6 PUSH1 0x20 DUP7 ADD PUSH2 0x26D5 JUMP JUMPDEST DUP1 DUP5 ADD SWAP2 POP POP SWAP3 SWAP2 POP POP JUMP JUMPDEST PUSH0 PUSH2 0x2ECD DUP3 DUP6 PUSH2 0x2E92 JUMP JUMPDEST SWAP2 POP PUSH2 0x2ED9 DUP3 DUP5 PUSH2 0x2E92 JUMP JUMPDEST SWAP2 POP DUP2 SWAP1 POP SWAP4 SWAP3 POP POP POP JUMP JUMPDEST PUSH32 0x546865204E4654206973206D696E74656420616C6C0000000000000000000000 PUSH0 DUP3 ADD MSTORE POP JUMP JUMPDEST PUSH0 PUSH2 0x2F19 PUSH1 0x15 DUP4 PUSH2 0x26C5 JUMP JUMPDEST SWAP2 POP PUSH2 0x2F24 DUP3 PUSH2 0x2EE5 JUMP JUMPDEST PUSH1 0x20 DUP3 ADD SWAP1 POP SWAP2 SWAP1 POP JUMP JUMPDEST PUSH0 PUSH1 0x20 DUP3 ADD SWAP1 POP DUP2 DUP2 SUB PUSH0 DUP4 ADD MSTORE PUSH2 0x2F46 DUP2 PUSH2 0x2F0D JUMP JUMPDEST SWAP1 POP SWAP2 SWAP1 POP JUMP JUMPDEST PUSH32 0x4E487B7100000000000000000000000000000000000000000000000000000000 PUSH0 MSTORE PUSH1 0x11 PUSH1 0x4 MSTORE PUSH1 0x24 PUSH0 REVERT JUMPDEST PUSH0 PUSH2 0x2F84 DUP3 PUSH2 0x274B JUMP JUMPDEST SWAP2 POP PUSH32 0xFFFFFFFFFFFFFFFFFFFFFFFFFFFFFFFFFFFFFFFFFFFFFFFFFFFFFFFFFFFFFFFF DUP3 SUB PUSH2 0x2FB6 JUMPI PUSH2 0x2FB5 PUSH2 0x2F4D JUMP JUMPDEST JUMPDEST PUSH1 0x1 DUP3 ADD SWAP1 POP SWAP2 SWAP1 POP JUMP JUMPDEST PUSH0 DUP2 MLOAD SWAP1 POP SWAP2 SWAP1 POP JUMP JUMPDEST PUSH0 DUP3 DUP3 MSTORE PUSH1 0x20 DUP3 ADD SWAP1 POP SWAP3 SWAP2 POP POP JUMP JUMPDEST PUSH0 PUSH2 0x2FE5 DUP3 PUSH2 0x2FC1 JUMP JUMPDEST PUSH2 0x2FEF DUP2 DUP6 PUSH2 0x2FCB JUMP JUMPDEST SWAP4 POP PUSH2 0x2FFF DUP2 DUP6 PUSH1 0x20 DUP7 ADD PUSH2 0x26D5 JUMP JUMPDEST PUSH2 0x3008 DUP2 PUSH2 0x26E3 JUMP JUMPDEST DUP5 ADD SWAP2 POP POP SWAP3 SWAP2 POP POP JUMP JUMPDEST PUSH0 PUSH1 0x80 DUP3 ADD SWAP1 POP PUSH2 0x3026 PUSH0 DUP4 ADD DUP8 PUSH2 0x27D9 JUMP JUMPDEST PUSH2 0x3033 PUSH1 0x20 DUP4 ADD DUP7 PUSH2 0x27D9 JUMP JUMPDEST PUSH2 0x3040 PUSH1 0x40 DUP4 ADD DUP6 PUSH2 0x2869 JUMP JUMPDEST DUP2 DUP2 SUB PUSH1 0x60 DUP4 ADD MSTORE PUSH2 0x3052 DUP2 DUP5 PUSH2 0x2FDB JUMP JUMPDEST SWAP1 POP SWAP6 SWAP5 POP POP POP POP POP JUMP JUMPDEST PUSH0 DUP2 MLOAD SWAP1 POP PUSH2 0x306B DUP2 PUSH2 0x2633 JUMP JUMPDEST SWAP3 SWAP2 POP POP JUMP JUMPDEST PUSH0 PUSH1 0x20 DUP3 DUP5 SUB SLT ISZERO PUSH2 0x3086 JUMPI PUSH2 0x3085 PUSH2 0x2600 JUMP JUMPDEST JUMPDEST PUSH0 PUSH2 0x3093 DUP5 DUP3 DUP6 ADD PUSH2 0x305D JUMP JUMPDEST SWAP2 POP POP SWAP3 SWAP2 POP POP JUMP JUMPDEST PUSH32 0x4E487B7100000000000000000000000000000000000000000000000000000000 PUSH0 MSTORE PUSH1 0x12 PUSH1 0x4 MSTORE PUSH1 0x24 PUSH0 REVERT JUMPDEST PUSH0 PUSH2 0x30D3 DUP3 PUSH2 0x274B JUMP JUMPDEST SWAP2 POP PUSH2 0x30DE DUP4 PUSH2 0x274B JUMP JUMPDEST SWAP3 POP DUP3 DUP3 SUB SWAP1 POP DUP2 DUP2 GT ISZERO PUSH2 0x30F6 JUMPI PUSH2 0x30F5 PUSH2 0x2F4D JUMP JUMPDEST JUMPDEST SWAP3 SWAP2 POP POP JUMP JUMPDEST PUSH32 0x4E487B7100000000000000000000000000000000000000000000000000000000 PUSH0 MSTORE PUSH1 0x31 PUSH1 0x4 MSTORE PUSH1 0x24 PUSH0 REVERT INVALID PUSH9 0x747470733A2F2F6970 PUSH7 0x732E696F2F6970 PUSH7 0x732F516D524B78 PUSH16 0x31413635413156346A546B375066324D PUSH27 0x377948534438764E666173647A4A674A6E534E73354241A2646970 PUSH7 0x73582212201207 SWAP15 0xA7 0x26 LOG3 PUSH16 0xDE619540FC5F76CF8C36C8EF838E72A6 ADDMOD 0xDA DUP10 SWAP7 0xD3 0xED 0xBF 0xED 0xA8 PUSH5 0x736F6C6343 STOP ADDMOD 0x1E STOP CALLER "
		},
		"gasEstimates": {
			"creation": {
				"codeDepositCost": "2541200",
				"executionCost": "infinite",
				"totalCost": "infinite"
			},
			"external": {
				"allowListMint()": "infinite",
				"allowedList(address)": "2878",
				"allowedListMintOpen()": "2627",
				"approve(address,uint256)": "infinite",
				"balanceOf(address)": "infinite",
				"editMintWindow(bool,bool)": "infinite",
				"getApproved(uint256)": "infinite",
				"isApprovedForAll(address,address)": "infinite",
				"name()": "infinite",
				"owner()": "2633",
				"ownerOf(uint256)": "infinite",
				"pause()": "infinite",
				"paused()": "2562",
				"publicMint()": "infinite",
				"publicMintOpen()": "2577",
				"renounceOwnership()": "infinite",
				"safeTransferFrom(address,address,uint256)": "infinite",
				"safeTransferFrom(address,address,uint256,bytes)": "infinite",
				"setAllowList(address[])": "infinite",
				"setApprovalForAll(address,bool)": "infinite",
				"supportsInterface(bytes4)": "940",
				"symbol()": "infinite",
				"tokenByIndex(uint256)": "infinite",
				"tokenOfOwnerByIndex(address,uint256)": "infinite",
				"tokenURI(uint256)": "infinite",
				"totalSupply()": "2530",
				"transferFrom(address,address,uint256)": "infinite",
				"transferOwnership(address)": "infinite",
				"unpause()": "infinite",
				"withdraw(address)": "infinite"
			},
			"internal": {
				"_baseURI()": "infinite",
				"_increaseBalance(address,uint128)": "infinite",
				"_update(address,uint256,address)": "infinite",
				"internalMint()": "infinite"
			}
		},
		"methodIdentifiers": {
			"allowListMint()": "102a6a73",
			"allowedList(address)": "a075fbde",
			"allowedListMintOpen()": "f8d3bc92",
			"approve(address,uint256)": "095ea7b3",
			"balanceOf(address)": "70a08231",
			"editMintWindow(bool,bool)": "90ce7254",
			"getApproved(uint256)": "081812fc",
			"isApprovedForAll(address,address)": "e985e9c5",
			"name()": "06fdde03",
			"owner()": "8da5cb5b",
			"ownerOf(uint256)": "6352211e",
			"pause()": "8456cb59",
			"paused()": "5c975abb",
			"publicMint()": "26092b83",
			"publicMintOpen()": "bcc9ca5b",
			"renounceOwnership()": "715018a6",
			"safeTransferFrom(address,address,uint256)": "42842e0e",
			"safeTransferFrom(address,address,uint256,bytes)": "b88d4fde",
			"setAllowList(address[])": "6447c35d",
			"setApprovalForAll(address,bool)": "a22cb465",
			"supportsInterface(bytes4)": "01ffc9a7",
			"symbol()": "95d89b41",
			"tokenByIndex(uint256)": "4f6ccce7",
			"tokenOfOwnerByIndex(address,uint256)": "2f745c59",
			"tokenURI(uint256)": "c87b56dd",
			"totalSupply()": "18160ddd",
			"transferFrom(address,address,uint256)": "23b872dd",
			"transferOwnership(address)": "f2fde38b",
			"unpause()": "3f4ba83a",
			"withdraw(address)": "51cff8d9"
		}
	},
	"abi": [
		{
			"inputs": [],
			"stateMutability": "nonpayable",
			"type": "constructor"
		},
		{
			"inputs": [],
			"name": "ERC721EnumerableForbiddenBatchMint",
			"type": "error"
		},
		{
			"inputs": [
				{
					"internalType": "address",
					"name": "sender",
					"type": "address"
				},
				{
					"internalType": "uint256",
					"name": "tokenId",
					"type": "uint256"
				},
				{
					"internalType": "address",
					"name": "owner",
					"type": "address"
				}
			],
			"name": "ERC721IncorrectOwner",
			"type": "error"
		},
		{
			"inputs": [
				{
					"internalType": "address",
					"name": "operator",
					"type": "address"
				},
				{
					"internalType": "uint256",
					"name": "tokenId",
					"type": "uint256"
				}
			],
			"name": "ERC721InsufficientApproval",
			"type": "error"
		},
		{
			"inputs": [
				{
					"internalType": "address",
					"name": "approver",
					"type": "address"
				}
			],
			"name": "ERC721InvalidApprover",
			"type": "error"
		},
		{
			"inputs": [
				{
					"internalType": "address",
					"name": "operator",
					"type": "address"
				}
			],
			"name": "ERC721InvalidOperator",
			"type": "error"
		},
		{
			"inputs": [
				{
					"internalType": "address",
					"name": "owner",
					"type": "address"
				}
			],
			"name": "ERC721InvalidOwner",
			"type": "error"
		},
		{
			"inputs": [
				{
					"internalType": "address",
					"name": "receiver",
					"type": "address"
				}
			],
			"name": "ERC721InvalidReceiver",
			"type": "error"
		},
		{
			"inputs": [
				{
					"internalType": "address",
					"name": "sender",
					"type": "address"
				}
			],
			"name": "ERC721InvalidSender",
			"type": "error"
		},
		{
			"inputs": [
				{
					"internalType": "uint256",
					"name": "tokenId",
					"type": "uint256"
				}
			],
			"name": "ERC721NonexistentToken",
			"type": "error"
		},
		{
			"inputs": [
				{
					"internalType": "address",
					"name": "owner",
					"type": "address"
				},
				{
					"internalType": "uint256",
					"name": "index",
					"type": "uint256"
				}
			],
			"name": "ERC721OutOfBoundsIndex",
			"type": "error"
		},
		{
			"inputs": [],
			"name": "EnforcedPause",
			"type": "error"
		},
		{
			"inputs": [],
			"name": "ExpectedPause",
			"type": "error"
		},
		{
			"inputs": [
				{
					"internalType": "address",
					"name": "owner",
					"type": "address"
				}
			],
			"name": "OwnableInvalidOwner",
			"type": "error"
		},
		{
			"inputs": [
				{
					"internalType": "address",
					"name": "account",
					"type": "address"
				}
			],
			"name": "OwnableUnauthorizedAccount",
			"type": "error"
		},
		{
			"anonymous": false,
			"inputs": [
				{
					"indexed": true,
					"internalType": "address",
					"name": "owner",
					"type": "address"
				},
				{
					"indexed": true,
					"internalType": "address",
					"name": "approved",
					"type": "address"
				},
				{
					"indexed": true,
					"internalType": "uint256",
					"name": "tokenId",
					"type": "uint256"
				}
			],
			"name": "Approval",
			"type": "event"
		},
		{
			"anonymous": false,
			"inputs": [
				{
					"indexed": true,
					"internalType": "address",
					"name": "owner",
					"type": "address"
				},
				{
					"indexed": true,
					"internalType": "address",
					"name": "operator",
					"type": "address"
				},
				{
					"indexed": false,
					"internalType": "bool",
					"name": "approved",
					"type": "bool"
				}
			],
			"name": "ApprovalForAll",
			"type": "event"
		},
		{
			"anonymous": false,
			"inputs": [
				{
					"indexed": true,
					"internalType": "address",
					"name": "previousOwner",
					"type": "address"
				},
				{
					"indexed": true,
					"internalType": "address",
					"name": "newOwner",
					"type": "address"
				}
			],
			"name": "OwnershipTransferred",
			"type": "event"
		},
		{
			"anonymous": false,
			"inputs": [
				{
					"indexed": false,
					"internalType": "address",
					"name": "account",
					"type": "address"
				}
			],
			"name": "Paused",
			"type": "event"
		},
		{
			"anonymous": false,
			"inputs": [
				{
					"indexed": true,
					"internalType": "address",
					"name": "from",
					"type": "address"
				},
				{
					"indexed": true,
					"internalType": "address",
					"name": "to",
					"type": "address"
				},
				{
					"indexed": true,
					"internalType": "uint256",
					"name": "tokenId",
					"type": "uint256"
				}
			],
			"name": "Transfer",
			"type": "event"
		},
		{
			"anonymous": false,
			"inputs": [
				{
					"indexed": false,
					"internalType": "address",
					"name": "account",
					"type": "address"
				}
			],
			"name": "Unpaused",
			"type": "event"
		},
		{
			"inputs": [],
			"name": "allowListMint",
			"outputs": [],
			"stateMutability": "payable",
			"type": "function"
		},
		{
			"inputs": [
				{
					"internalType": "address",
					"name": "",
					"type": "address"
				}
			],
			"name": "allowedList",
			"outputs": [
				{
					"internalType": "bool",
					"name": "",
					"type": "bool"
				}
			],
			"stateMutability": "view",
			"type": "function"
		},
		{
			"inputs": [],
			"name": "allowedListMintOpen",
			"outputs": [
				{
					"internalType": "bool",
					"name": "",
					"type": "bool"
				}
			],
			"stateMutability": "view",
			"type": "function"
		},
		{
			"inputs": [
				{
					"internalType": "address",
					"name": "to",
					"type": "address"
				},
				{
					"internalType": "uint256",
					"name": "tokenId",
					"type": "uint256"
				}
			],
			"name": "approve",
			"outputs": [],
			"stateMutability": "nonpayable",
			"type": "function"
		},
		{
			"inputs": [
				{
					"internalType": "address",
					"name": "owner",
					"type": "address"
				}
			],
			"name": "balanceOf",
			"outputs": [
				{
					"internalType": "uint256",
					"name": "",
					"type": "uint256"
				}
			],
			"stateMutability": "view",
			"type": "function"
		},
		{
			"inputs": [
				{
					"internalType": "bool",
					"name": "_allowedListMintOpen",
					"type": "bool"
				},
				{
					"internalType": "bool",
					"name": "_publicMintOpen",
					"type": "bool"
				}
			],
			"name": "editMintWindow",
			"outputs": [],
			"stateMutability": "nonpayable",
			"type": "function"
		},
		{
			"inputs": [
				{
					"internalType": "uint256",
					"name": "tokenId",
					"type": "uint256"
				}
			],
			"name": "getApproved",
			"outputs": [
				{
					"internalType": "address",
					"name": "",
					"type": "address"
				}
			],
			"stateMutability": "view",
			"type": "function"
		},
		{
			"inputs": [
				{
					"internalType": "address",
					"name": "owner",
					"type": "address"
				},
				{
					"internalType": "address",
					"name": "operator",
					"type": "address"
				}
			],
			"name": "isApprovedForAll",
			"outputs": [
				{
					"internalType": "bool",
					"name": "",
					"type": "bool"
				}
			],
			"stateMutability": "view",
			"type": "function"
		},
		{
			"inputs": [],
			"name": "name",
			"outputs": [
				{
					"internalType": "string",
					"name": "",
					"type": "string"
				}
			],
			"stateMutability": "view",
			"type": "function"
		},
		{
			"inputs": [],
			"name": "owner",
			"outputs": [
				{
					"internalType": "address",
					"name": "",
					"type": "address"
				}
			],
			"stateMutability": "view",
			"type": "function"
		},
		{
			"inputs": [
				{
					"internalType": "uint256",
					"name": "tokenId",
					"type": "uint256"
				}
			],
			"name": "ownerOf",
			"outputs": [
				{
					"internalType": "address",
					"name": "",
					"type": "address"
				}
			],
			"stateMutability": "view",
			"type": "function"
		},
		{
			"inputs": [],
			"name": "pause",
			"outputs": [],
			"stateMutability": "nonpayable",
			"type": "function"
		},
		{
			"inputs": [],
			"name": "paused",
			"outputs": [
				{
					"internalType": "bool",
					"name": "",
					"type": "bool"
				}
			],
			"stateMutability": "view",
			"type": "function"
		},
		{
			"inputs": [],
			"name": "publicMint",
			"outputs": [],
			"stateMutability": "payable",
			"type": "function"
		},
		{
			"inputs": [],
			"name": "publicMintOpen",
			"outputs": [
				{
					"internalType": "bool",
					"name": "",
					"type": "bool"
				}
			],
			"stateMutability": "view",
			"type": "function"
		},
		{
			"inputs": [],
			"name": "renounceOwnership",
			"outputs": [],
			"stateMutability": "nonpayable",
			"type": "function"
		},
		{
			"inputs": [
				{
					"internalType": "address",
					"name": "from",
					"type": "address"
				},
				{
					"internalType": "address",
					"name": "to",
					"type": "address"
				},
				{
					"internalType": "uint256",
					"name": "tokenId",
					"type": "uint256"
				}
			],
			"name": "safeTransferFrom",
			"outputs": [],
			"stateMutability": "nonpayable",
			"type": "function"
		},
		{
			"inputs": [
				{
					"internalType": "address",
					"name": "from",
					"type": "address"
				},
				{
					"internalType": "address",
					"name": "to",
					"type": "address"
				},
				{
					"internalType": "uint256",
					"name": "tokenId",
					"type": "uint256"
				},
				{
					"internalType": "bytes",
					"name": "data",
					"type": "bytes"
				}
			],
			"name": "safeTransferFrom",
			"outputs": [],
			"stateMutability": "nonpayable",
			"type": "function"
		},
		{
			"inputs": [
				{
					"internalType": "address[]",
					"name": "_addresses",
					"type": "address[]"
				}
			],
			"name": "setAllowList",
			"outputs": [],
			"stateMutability": "nonpayable",
			"type": "function"
		},
		{
			"inputs": [
				{
					"internalType": "address",
					"name": "operator",
					"type": "address"
				},
				{
					"internalType": "bool",
					"name": "approved",
					"type": "bool"
				}
			],
			"name": "setApprovalForAll",
			"outputs": [],
			"stateMutability": "nonpayable",
			"type": "function"
		},
		{
			"inputs": [
				{
					"internalType": "bytes4",
					"name": "interfaceId",
					"type": "bytes4"
				}
			],
			"name": "supportsInterface",
			"outputs": [
				{
					"internalType": "bool",
					"name": "",
					"type": "bool"
				}
			],
			"stateMutability": "view",
			"type": "function"
		},
		{
			"inputs": [],
			"name": "symbol",
			"outputs": [
				{
					"internalType": "string",
					"name": "",
					"type": "string"
				}
			],
			"stateMutability": "view",
			"type": "function"
		},
		{
			"inputs": [
				{
					"internalType": "uint256",
					"name": "index",
					"type": "uint256"
				}
			],
			"name": "tokenByIndex",
			"outputs": [
				{
					"internalType": "uint256",
					"name": "",
					"type": "uint256"
				}
			],
			"stateMutability": "view",
			"type": "function"
		},
		{
			"inputs": [
				{
					"internalType": "address",
					"name": "owner",
					"type": "address"
				},
				{
					"internalType": "uint256",
					"name": "index",
					"type": "uint256"
				}
			],
			"name": "tokenOfOwnerByIndex",
			"outputs": [
				{
					"internalType": "uint256",
					"name": "",
					"type": "uint256"
				}
			],
			"stateMutability": "view",
			"type": "function"
		},
		{
			"inputs": [
				{
					"internalType": "uint256",
					"name": "tokenId",
					"type": "uint256"
				}
			],
			"name": "tokenURI",
			"outputs": [
				{
					"internalType": "string",
					"name": "",
					"type": "string"
				}
			],
			"stateMutability": "view",
			"type": "function"
		},
		{
			"inputs": [],
			"name": "totalSupply",
			"outputs": [
				{
					"internalType": "uint256",
					"name": "",
					"type": "uint256"
				}
			],
			"stateMutability": "view",
			"type": "function"
		},
		{
			"inputs": [
				{
					"internalType": "address",
					"name": "from",
					"type": "address"
				},
				{
					"internalType": "address",
					"name": "to",
					"type": "address"
				},
				{
					"internalType": "uint256",
					"name": "tokenId",
					"type": "uint256"
				}
			],
			"name": "transferFrom",
			"outputs": [],
			"stateMutability": "nonpayable",
			"type": "function"
		},
		{
			"inputs": [
				{
					"internalType": "address",
					"name": "newOwner",
					"type": "address"
				}
			],
			"name": "transferOwnership",
			"outputs": [],
			"stateMutability": "nonpayable",
			"type": "function"
		},
		{
			"inputs": [],
			"name": "unpause",
			"outputs": [],
			"stateMutability": "nonpayable",
			"type": "function"
		},
		{
			"inputs": [
				{
					"internalType": "address",
					"name": "_to",
					"type": "address"
				}
			],
			"name": "withdraw",
			"outputs": [],
			"stateMutability": "nonpayable",
			"type": "function"
		}
	]
}